:020000040800F2
:10000000C86A002045010008671C0008811A000822
:10001000651C0008C70500088522000800000000D4
:100020000000000000000000000000001F1D00088C
:10003000D505000800000000691C0008211D00080B
:100040005F0100085F0100085F0100085F01000810
:100050005F0100085F0100085F010008DF0500087C
:100060005F0100085F0100085F0100085F010008F0
:100070005F0100085F010008C90500085F01000872
:100080005F0100085F0100085F0100085F010008D0
:100090005F0100085F0100085F0100085F010008C0
:1000A0005F0100085F0100085F0100085F010008B0
:1000B0005F0100085F0100085F0100085F010008A0
:1000C0005F0100085F0100085F0100085F01000890
:1000D0005F010008112200085F0100085F010008AD
:1000E000D70500085F0100085F0100085F010008F4
:1000F0005F0100085F0100085F0100085F01000860
:100100005F0100085F0100085F0100085F0100084F
:100110005F0100085F0100085F0100085F0100083F
:100120005F0100085F0100085F0100085F0100082F
:10013000DFF80CD000F026FA00480047C52D000873
:10014000C86A00200648804706480047FEE7FEE7E9
:10015000FEE7FEE7FEE7FEE7FEE7FEE7FEE7FEE777
:10016000751D000831010008202A04DB203A21FA1D
:1001700002F00021704721FA02F3D040C2F12002C0
:100180009140084319467047D2B201E000F8012BB4
:10019000491EFBD270470022F6E710B513460A4607
:1001A00004461946FFF7F0FF204610BDF0B480EA80
:1001B0000102D40F4200B2EB410F02D202460846C0
:1001C00011464A0042D0C30DDDB2C1F3C752AD1A89
:1001D000202D35DAC1F3160141F4000204B1524278
:1001E000C5F1200602FA06F12A411044B3EBD05FB4
:1001F00023D0C4B1012DA0EBC35009DCF0BC4FF0FB
:10020000004202EAC352DBB200F5000000F02FB951
:10021000400000F1807000EBC350A0F1807040EA14
:10022000D170490009E0490841EAC071A0EBC35010
:1002300000F50000400800EBC350F0BC00F00EB920
:100240006142012202EB4101001BF6E7F0BC70475E
:1002500081F00041AAE780F00040A7E780EA0102B0
:1002600010B502F00043400022D04A001FD0010E1A
:1002700001EB1261C0F35600C2F3560240F40000D5
:1002800042F40002A0FB022000047F39140400D0D5
:10029000401C50EA124001D44000491EC2B20C0674
:1002A00004EBD010401C4008802A02D003E000205C
:1002B00010BD20F00100002900DA0020184310BD15
:1002C00030B480EA010202F0004530F0004221F033
:1002D000004013D090B1C30DD40DC2F31601C0F38A
:1002E0001600E41A41F4000140F400027D3491420A
:1002F00001D3641C00E04900002C02DA30BC00206D
:1003000070474FF400000023914201D3891A034340
:1003100040084FEA4101F7D151B1914202D14FF06B
:10032000004105E002D24FF0010101E06FF0010150
:1003300003EBC450284430BC00F090B870B521F0F5
:10034000004303430CD0C1F30A550024D5EB040548
:1003500064EB0403D617AD1AB34102DB002001465B
:1003600070BD201841EB025170BDC10F80EAE070F2
:100370000844CA079623002100F079B8962300228A
:10038000114600F074B80EB540F2334102910021DD
:10039000CDE900110A460B4600F0A6F803B000BDF7
:1003A00000F0004220F00040C10DC0F3160040F400
:1003B00000007F2901DA00207047962903DCC1F193
:1003C0009601C84001E096398840002AF4D04042A6
:1003D000704720F00040C10DC0F3160040F400004B
:1003E0007F2901DA00207047962903DCC1F19601CC
:1003F000C840704796398840704701F0004330B4D8
:1004000021F0004150EA010206D00A0DA2F5607207
:10041000C1F31301002A02DC30BC00207047440FF6
:1004200044EAC104C100E01830BC00EBC25000F047
:1004300015B80000002801DBC0F10040002901DBF5
:10044000C1F1004181427047002801DBC0F100404A
:10045000002901DBC1F10041884270470029A8BF93
:100460007047401C490008BF20F00100704710B4DD
:10047000B0FA80FC00FA0CF050EA010404BF10BC92
:10048000704749B1CCF1200421FA04F411FA0CF1BF
:1004900018BF012121430843A3EB0C01CB1D4FEAF8
:1004A00000614FEA102042BF002010BC704700EBF3
:1004B000C35010440029A4BF10BC7047401C490021
:1004C00008BF20F0010010BC704710B5141E73F176
:1004D000000408DA401C41F1000192185B411A4304
:1004E00001D120F0010010BD2DE9F04D92469B4650
:1004F00011B1B1FA81F202E0B0FA80F220329046F6
:1005000000F052F804460F4640EA0A0041EA0B01A7
:1005100053465A46084313D0114653EA010019D0F6
:10052000C8F140025046FFF71FFE05460E465046F2
:100530005946424600F038F8084305D0012004E04F
:1005400020463946BDE8F08D0020054346EAE076B6
:100550002C4337430A986305E40AA0EB0800002205
:10056000FD0A44EA47540A3002D500200146E9E773
:10057000010510196941DDE9084500196941BDE827
:10058000F04DA2E7064C074D06E0E06840F001039D
:1005900094E8070098471034AC42F6D3FFF7CCFD3F
:1005A0005032000870320008202A04DB203A00FA9A
:1005B00002F1002070479140C2F1200320FA03F3BA
:1005C000194390407047FEE7014800F0A5B80000CD
:1005D0003431002070474FF4004000F039BA022057
:1005E00000F036BA704700002DE9F05F90F8211056
:1005F0000024022903D004218163012485E00168DD
:100600000A6822F00E020A6001680A6822F00102FC
:100610000A603F4E3E4FB215DFF8F4C0DFF8F090AD
:10062000DFF8ECA0DFF8E8B0DFF8E4E00168783F3D
:1006300013011502ACF1640CA9F15009AAF13C0AAE
:10064000ABF1280BAEF1140E4FF48018B14227D94C
:10065000B9420ED0614512D049451DD0514518D040
:10066000594518D0714501D1424615E0294EB14295
:1006700001D1012210E0274E1436B14201D11022DF
:100680000AE0244E2836B14206D0224A3C3291423A
:1006900001D11A4600E02A461E49091F0A602BE0D4
:1006A000B94213D0614517D0494522D051451DD0DC
:1006B00059451DD0714501D142461AE0B14202D1DF
:1006C0004FF0807215E0134EB14201D1012210E0CB
:1006D000104E1436B14201D110220AE00D4E2836D8
:1006E000B14206D00B4A3C32914201D11A4600E099
:1006F0002A46074980394A60012180F821100021EB
:1007000080F82010416B01B188472046BDE8F09F7A
:1007100080000240080402402DE9F05FC16B0A68C6
:1007200001680B68046C4FF0040808FA04F8844D63
:10073000844E854FDFF814C2DFF81492DFF814A25C
:10074000DFF814B2DFF814E218EA020F65D05FEAAE
:10075000437862D50A68920603D40A6822F004023C
:100760000A60DFF8F0814FF48062016808F1140834
:1007700013011402414524D9A9420DD0B1420FD032
:10078000B9421AD0614515D0494515D0514501D11E
:10079000120312E0594501D104220EE0714501D146
:1007A00040220AE06D4D1435A94206D06B4A28322A
:1007B000914201D11A4600E022466749091F0A60AA
:1007C00029E0A94213D0B14215D0B94220D06145E9
:1007D0001BD049451BD0514502D14FF4800217E090
:1007E000414502D14FF0806212E0594501D1042207
:1007F0000EE0714501D140220AE0584D1435A9425E
:1008000006D0564A2832914201D11A4600E02246CB
:100810004B4908394A60C16A71E04FF0020808FA92
:1008200004F818EA020F70D05FEA83786DD50A6881
:10083000920606D40A6822F00A020A60012180F8B2
:100840002110DFF810814FF40072016808F11408DC
:1008500013011402414524D9A9420DD0B1420FD051
:10086000B9421AD0614515D0494515D0514501D13D
:10087000120312E0594501D102220EE0714501D167
:1008800020220AE0354D1435A94206D0334A2832D9
:10089000914201D11A4600E022462F49091F0A6001
:1008A00029E0A94213D0B14215D0B94220D0614508
:1008B0001BD049451BD0514502D14FF4001217E01F
:1008C000414502D14FF0007212E0594501D1022298
:1008D0000EE0714501D120220AE0204D1435A942D5
:1008E00006D01E4A2832914201D11A4600E0224623
:1008F000134908394A60002180F82010816A0029D4
:100900001CD0BDE8F05F0847FFE70825A540154269
:1009100014D01A0712D50A6822F00E020A6090F865
:100920004020C36B012101FA02F25A60816380F812
:100930002110002180F82010016BE0E7BDE8F09F56
:10094000080002401C000240300002404400024007
:10095000580002406C000240080402401C0402409F
:1009600030B560B11A4B026814219A4209D2194B72
:100970001344B3FBF1F18900016417490AE0012037
:1009800030BD134B5B421344B3FBF1F189000164AA
:100990000F490839C163022180F82110136843F61A
:1009A000F0718B43F0E901142143D0E902452C4357
:1009B0002143046921434469214384692143194344
:1009C000116000214163012242770177084630BD62
:1009D00008040240F8FFFDBF0000024070B5044665
:1009E00000F050F90546601C02D004480078044429
:1009F00000F048F9401BA042FAD370BD78000020F7
:100A000070B5054601204FF6FF71401C8842FCDBA3
:100A10000C4C022D03D0B5F5004F0BD00EE0022197
:100A2000094800F01DF9012808D120780B2805D2CB
:100A3000401C02E0207808B1401E20700348056089
:100A400070BD00002C000020000C01401404014087
:100A5000044910B50A68024202D00860FFF7D0FFCF
:100A600010BD0000140401402DE9F84FDFF8C891D3
:100A7000002409F1040A0AF1040B23460F270BF1A5
:100A8000040ED1E00125A54006EA0502AA4276D16E
:100A9000DFF8A8C14E68A6EB0C0866452BD00DDC2C
:100AA000032E34D005DC36B3012E19D0022E2FD1FF
:100AB0001BE0112E16D0122E2AD119E0B8F5881F8E
:100AC00019D006DCB8F5803F15D0B8F5801F1FD1CE
:100AD00011E0B8F5001F0ED0B8F5041F18D10AE0D8
:100AE000CB6815E0CB681B1D12E0CB6808330FE024
:100AF000CB680C330CE08B682BB1012B4FF0080353
:100B000003D0456104E0042302E0056100E0002316
:100B1000FF2A01D8064601E000F104064FEA8405E9
:100B200001D9A5F12005D6F8008007FA05FC28EACE
:100B30000C0803FA05F548EA0508C6F800804D6878
:100B4000ED0070D53E4DAE6946F00106AE61AD696F
:100B500024F0030605F0010500953A4D06EB050C5F
:100B6000DCF80850A607360F07FA06F825EA08054C
:100B7000DFF8D480404503D14FF0000825E052E073
:100B8000DFF8C880404502D14FF001081DE0DFF8D2
:100B9000C080404502D14FF0020816E0DFF8B48073
:100BA000404502D14FF003080FE0DFF8AC8040452C
:100BB00002D14FF0040808E0DFF8A080404502D1E0
:100BC0004FF0050801E04FF0060808FA06F848EA79
:100BD0000508CCF808804D68D9F80060ED034D4653
:100BE00001D5164300E096432E604D68DAF80060A8
:100BF000AD03554601D5164300E096432E604D687F
:100C0000DBF80060ED025D4601D5164300E0964337
:100C10002E604D68DEF80060AD02754601D51643C2
:100C200000E096432E60641C0A681646E2407FF49A
:100C300029AFBDE8F88F000000040140000011104A
:100C4000001002400000014000080140000C01407B
:100C5000001001400014014000180140001C014038
:100C60008068084000D001207047C2680A4201D065
:100C700041617047016170470AB101617047090421
:100C8000FBE7000001488068704700007800002002
:100C90000248816802781144816070477800002022
:100CA000074810B5016841F010010160032000F011
:100CB00075F8002000F006F800F024F8002010BDC0
:100CC0000020024070B50D4D04464FF47A7128782B
:100CD000B1FBF0F00A490968B1FBF0F000F010FC3C
:100CE00048B9102C07D200222146501E00F036F8D9
:100CF00000206C6070BD012070BD000078000020F5
:100D0000840000200C4808B5816941F0010181612F
:100D1000816901F001010091C16941F08051C16117
:100D2000C06900F0805000900448416821F0E06103
:100D300041F00071416008BD001002400000014018
:100D4000002809DB00F01F020121914040098000CA
:100D500000F1E020C0F8001170470000F0B40E4B25
:100D60001B680C46C3F30223C3F10705042D00D909
:100D70000425191D072901D2002300E0DB1E0126EE
:100D800006FA05F1491E214099409E40761E164004
:100D90003143F0BC01F030BF0CED00E0064900F03B
:100DA000070208684FF6FF03184040EA0220034A92
:100DB00010430860704700000CED00E00000FA05E9
:100DC0002DE9F0470F46050061D0434E306800F032
:100DD0000700B84209D2306820F00700384330607D
:100DE000306800F00700B84251D128683B4C8107B9
:100DF00012D5400703D5606840F4E0606060287851
:100E0000000703D5606840F4605060606068A968BE
:100E100020F0F000084360602878C00728D0686898
:100E2000012810D02168022810D0890700292EDA65
:100E3000616821F0030101436160FFF723FF8046F1
:100E400041F288390DE021688903EFE78901EDE778
:100E5000FFF718FFA0EB0801494502D90320BDE8C0
:100E6000F0876068696800F00C00B0EB810FEFD18B
:100E7000306800F00700B8420BD9306820F0070056
:100E800038433060306800F00700B84201D00120DC
:100E9000E5E72878400705D56068E96820F4E06058
:100EA000084360602878000706D56068296920F447
:100EB000605040EAC100606000F038F86168084A9C
:100EC000C1F30311515CC840064908600648006838
:100ED000FFF7F8FE0020C2E70020024000100240A9
:100EE00036320008840000207C00002004480549B8
:100EF00000684968044AC1F30221515CC840704748
:100F000084000020001002404632000804480549D1
:100F100000684968044AC1F3C221515CC840704767
:100F200084000020001002404632000812A185B063
:100F30000FC98DE80F0014A0144A0068049051688E
:100F4000134801F00C03042B10D0082B0ED1C1F371
:100F50008343C9031DF803000AD5516804AAC1F3ED
:100F60004041515C0A4A5043B0FBF1F005B0704774
:100F700008494843FAE70000020304050607080988
:100F80000A0B0C0D0E0F10100102000000100240A1
:100F900000127A0000093D002DE9F84F040070D0DE
:100FA0002078C04DC00749D06868C0F3810001288F
:100FB00007D06868C0F38100022809D16868C003BF
:100FC00006D52868800339D560680028E7D035E069
:100FD0006068B0F5803F0BD010B1B0F5A02F11D0F4
:100FE000286820F480302860286820F4802002E0FF
:100FF000286840F480302860606890B1FFF742FEB6
:1010000006460AE0286840F480202860F0E700BF28
:10101000FFF738FE801B642873D828688003F7D553
:101020000CE0FFF72FFE064605E000BFFFF72AFEA3
:10103000801B6428F0D828688003F7D420789A4E63
:1010400080074FF001094FF0000839D5686810F0AB
:101050000C0F07D06868C0F38100022809D16868C6
:10106000C00306D42868800714D52069012808D158
:1010700010E02069B0B1C6F80090FFF703FE074604
:1010800005E00AE1FFF7FEFDC01B0228C4D828686E
:101090008007F7D52868616920F0F80040EAC100B0
:1010A00028600DE0C6F80080FFF7ECFD074604E07D
:1010B000FFF7E8FDC01B022823D828688007F7D473
:1010C000207800072CD57948A169D9B1C0F80090E3
:1010D000FFF7D8FD074604E0FFF7D4FDC01B022848
:1010E0000FD8686A8007F7D571484FF4FA51006845
:1010F000B0FBF1F0009000BF0098411E0091FAD2C1
:101100000EE080E0C0F80080FFF7BCFD074604E079
:10111000FFF7B8FDC01B022875D8686A8007F7D4AE
:101120002078400760D5E8690027C00008D4E86946
:1011300040F08050E861E869012700F0805000909D
:101140005C480168C90513D40168834641F4807185
:101150000160FFF797FD824606E000BFFFF792FDB2
:10116000A0EB0A0064284ED8DBF80000C005F5D5D6
:10117000E06801280AD008B1052813D0286A20F0B9
:1011800001002862286A20F0040002E0286A40F08A
:1011900001002862E06841F2883B98B1FFF772FDD8
:1011A00082460BE0286A40F004002862EEE700BFA8
:1011B000FFF768FDA0EB0A0159455AD8286A800755
:1011C000F6D50CE0FFF75EFD824605E0FFF75AFD1D
:1011D000A0EB0A0159454CD8286A8007F6D41FB104
:1011E000E86920F08050E861E06988B36968C1F37C
:1011F0008101022944D00228C6F8608004D0FFF79C
:1012000041FD044638E034E0FFF73CFD074604E0CA
:10121000FFF738FDC01B02282BD828688001F7D4BF
:10122000206AB0F5803F05D16868A16820F40030DD
:1012300008436860D4E908010843696821F474111F
:1012400008436860C6F86090FFF71CFD044606E09E
:1012500025E000BFFFF716FD001B022809D828680B
:101260008001F7D51BE000BFFFF70CFD001B022833
:1012700002D90320BDE8F88F28688001F4D40EE07D
:101280000128F7D06868226A00F48031914204D1C5
:10129000616A00F47010884201D00120EAE7002062
:1012A000E8E7000000100240000042428004424291
:1012B000840000200070004070B5040005D00025B7
:1012C000A56294F8510010B106E0012070BD84F8C9
:1012D0005050204600F02EF8022084F8510020687B
:1012E000016821F040010160D4E901010843D4E91B
:1012F00003121143084361690843218B01F4007113
:101300000843E1690843216A0843A16A0843216848
:101310000860A069042101EA104021684860206843
:10132000C16921F40061C1616565012084F8510043
:10133000002070BD30B585B0002400940194029463
:10134000039400681449884223D11448C16941F4C8
:101350000041C161C16901F400410491816941F01A
:101360000801816180690E4D00F00800049028207A
:101370000090022001900320039069462846FFF761
:1013800073FB1020CDE90004694628460294FFF75C
:101390006BFB05B030BD0000003C00400010024077
:1013A000000C01402DE9F84F044690F8500000274A
:1013B0001D461646894601280DD04FF0010B84F8D2
:1013C00050B0FFF75FFC804694F85100BA46012800
:1013D00004D002278EE00220BDE8F88FB9F1000F9B
:1013E0007DD0002E7BD0032084F85100C4F854A097
:1013F000C4F83090A686E686C4F838A0A4F83CA0CD
:10140000A4F83EA0C4F844A0C4F840A0A068B0F579
:10141000004F04D12068016841F4804101602068D8
:101420000168490603D4016841F040010160E068A9
:10143000B0F5006F606803D030B3012E24D040E0D7
:1014400008B1012E1CD1206B21680088C86006E01D
:1014500020688168890709D5216B0988C160206BE4
:10146000801C2063E08E401EE08609E0FFF70AFC46
:10147000A0EB0800A84202D3681C01D031E07DB384
:10148000E08E0028E4D11FE0206B2168007808730B
:1014900006E020688168890709D5216B0978017306
:1014A000206B401C2063E08E401EE08609E0FFF7C1
:1014B000E9FBA0EB0800A84202D3681C01D010E0B1
:1014C00075B1E08E0028E4D142462946204600F05E
:1014D000CCFB08B120206065A06820B107E008E0DF
:1014E000FFE7032706E02068C16880680090606D10
:1014F00000B1012784F851B084F850A038466BE75A
:1015000010B5401EB0F1807F01D3012010BD4FF017
:10151000E02460610F21601701F06EFB0020A061E4
:1015200007202061002010BD10B590F83C20012A52
:1015300022D0012280F83C20CA688C6822F44072D4
:1015400022434C6822F4806222430C6822F4006239
:1015500022430C6922F4805222434C6922F4005247
:101560002243C969002322F480420A4301684A6485
:1015700080F83C30002010BD022010BD70B590F8FE
:101580003C20012A19D0012400F83C4F022242706D
:1015900050F83C3C5A689D6822F070060A68496819
:1015A000324325F0800529435A6050F83C2C916065
:1015B000447000210170084670BD022070BD00001B
:1015C00000B585B00021009101910291039100685E
:1015D0000B49884212D10B48816941F004018161B5
:1015E0008069694600F0040004904FF400600090A8
:1015F0000220019003900448FFF736FA05B000BDC1
:10160000002C0140001002400008014070B5044663
:1016100090F83C000D4601280DD0012684F83C606E
:10162000022084F83D0042B1042A18D0082A2AD0AA
:101630000C2A4DD139E0022070BD206800F004FC76
:101640002068816941F0080181612068816921F089
:1016500004018161206881692A69114311E02068D1
:1016600000F022FC2068816941F4006181612068FA
:10167000816921F480618161206881692A6941EA78
:101680000221816124E0206800F044FC2068C169E7
:1016900041F00801C1612068C16921F00401C16104
:1016A0002068C1692A69114311E0206800F066FCD6
:1016B0002068C16941F40061C1612068C16921F4F9
:1016C0008061C1612068C1692A6941EA0221C16162
:1016D00084F83D60002084F83C0070BD10B5040023
:1016E00003D094F83D0010B107E0012010BD0020A8
:1016F00084F83C00204600F00DF8022084F83D00FC
:10170000211D206800F05AFB012084F83D000020D4
:1017100010BD000038B5054600681349884222D143
:101720001248816941F4006181618069114C00F4C3
:10173000006000900E482060102060600020802132
:10174000C4E90201490021618900C4E9051088004B
:10175000E0612046FFF704F908B1FEF743FF2C6370
:10176000AC636C63656238BD002C01400010024020
:1017700044000240343100207047000070B5026818
:1017800004461068D168536910F00F0F50D003F071
:10179000010501F4907635435DD0C20705D0CA0536
:1017A00003D5E26B42F00102E263420705D5DA0796
:1017B00003D0E26B42F00202E263820705D5DA074A
:1017C00003D0E26B42F00402E263020705D5DA07B8
:1017D00003D0E26B42F00802E263E26B002A33D0EE
:1017E000800604D5880602D5204600F005FC206856
:1017F0004069E16BC0F38010090700D428B320468C
:1018000000F0ECFB2068416949061AD5416921F0D6
:1018100040014161606BA0B11B494163606BFEF701
:10182000E3FE002810D0606B416BBDE870400847B4
:10183000830610D58B060ED52046BDE8704000F01B
:10184000DBBB2046FFF798FF70BD2046FFF794FFF3
:101850000020E06370BD030606D50B0604D52046C4
:10186000BDE8704000F070BC4006F3D54806F1D5E5
:10187000D168204621F04001D160202184F8391040
:1018800000F0FDF870BD0000CD1F000870B5040029
:1018900004D094F83900002510B106E0012070BD95
:1018A00084F83850204600F023F8242084F83900CA
:1018B0002068C16821F40051C160204600F0E8FBB7
:1018C0002068016921F4904101612068416921F09B
:1018D0002A0141612068C16841F40051C160E5639B
:1018E000202084F8390084F83A00002070BD000000
:1018F00030B585B0002400940194029403940068EC
:10190000184988422CD11848816941F4804181618D
:10191000816901F480410491816941F00401816190
:101920008069124D00F0040004904FF400700090A4
:10193000022001900320039069462846FFF794F89F
:101940002815CDE90004694628460294FFF78CF873
:10195000002211462520FFF701FA2520FFF7F0F9B4
:1019600005B030BD003801400010024000080140C1
:1019700090F83A30202B22D1F9B1F2B190F83830FA
:10198000012B1CD081628285C2850021C163222285
:1019900080F83A2080F838100168CA6842F48072F2
:1019A000CA6001684A6942F001024A610068C16880
:1019B00041F02001C16000207047012070470220E3
:1019C000704770472DE9F843044690F839001F46E8
:1019D00016460D46202850D1A5B19EB194F8380086
:1019E00001284AD0012084F838004FF00008C4F8DC
:1019F0003C80212084F83900FFF744F9A684814611
:101A0000E68426E00120BDE8F883E08C401EE084F7
:101A1000A0684B46B0F5805F4FF000024FF08001A8
:101A20002046009703D000F0C0FBE8B90DE000F0BD
:101A3000BCFBC8B928882168C0F308004860206949
:101A400008B16D1C05E0AD1C03E0216815F8010B21
:101A50004860E08C0028D8D14B4600224021204627
:101A6000009700F0A2FB08B10320CCE7202084F807
:101A7000390084F838800020C5E70220C3E77047AA
:101A8000FEE70000094808B5416941F001014161E4
:101A90004069002200F00100009011460E20FFF77F
:101AA0005DF9BDE808400E20FFF74AB9001002407A
:101AB00070B586B0002421480094019402940394E8
:101AC000816941F008018161816901F00801049197
:101AD000816941F0040181618069194E00F00400C0
:101AE0004FF4C0450490002229463046FFF7C4F861
:101AF000F01300901348CDE9010469463046FEF723
:101B0000B3FF01200095CDE901040220039069464E
:101B10003046FEF7A9FF002211460720FFF71EF905
:101B20000720FFF70DF9002211462820FFF716F9CC
:101B30002820FFF705F906B070BD00000010024034
:101B4000000C014000001110104810B50E49016052
:101B50004FF48271416000214FF40062C0E902122B
:101B600092100161C0E905120822C0E90721416213
:101B700081620A21C162FFF79FFB002803D0BDE804
:101B80001040FEF72FBD10BD003C00409C300020EF
:101B900010B592B000240F941C2108A81094FEF7F1
:101BA000FAFA20216846FEF7F6FA1F481D49C0E9F7
:101BB00000144F21C0E9024180210461C0E90541C0
:101BC000FFF78CFD08B1FEF70DFD0F940FA9164825
:101BD0001094FFF7D3FC08B1FEF704FD6020CDE9B7
:101BE00008040A940C940D940C2208A90E480E9433
:101BF000FFF70CFD08B1FEF7F5FC00944FF4005020
:101C0000CDE9044002940194039469460648079480
:101C1000FFF78AFC08B1FEF7E5FC0348FFF7D0FCAC
:101C200012B010BD002C0140F43000200C4810B55B
:101C30000A4901604FF4E1314160002181600C22CA
:101C4000C160C0E904128161C161FFF71FFE002875
:101C500003D0BDE81040FEF7C5BC10BD0038014000
:101C600078310020FEE77047704738B50B46009288
:101C700004460022802100F008F8002804D0606D9E
:101C800040F020006065032038BD2DE9F0411D467D
:101C900017460E460446DDF8188008E0681C06D09A
:101CA000FEF7F0FFA0EB0800A8420BD255B1206868
:101CB000806836EA000030D00020B842EED1002023
:101CC000BDE8F0812068416821F0E0014160606872
:101CD000B0F5827F0BD1A068B0F5004F02D0B0F50F
:101CE000806F04D12068016821F040010160A06A82
:101CF000B0F5005F09D12068016821F4005101604E
:101D00002068016841F400510160012084F851000D
:101D1000002084F850000320D2E70120CDE770476F
:101D2000FEF7B6BF30B58FB028216846FEF733FA0C
:101D300014210AA8FEF72FFA01210804CDE90010AA
:101D40000024029402250491CDE907504FF4E010DD
:101D500009906846FFF720F90F20CDE90A056802CF
:101D6000CDE90C4002210AA80E94FFF729F80FB024
:101D700030BD00000D48016841F00101016041687B
:101D80000B4A1140416001680A4A11400160016834
:101D900021F480210160416821F4FE0141604FF48B
:101DA0001F0181600449C0030860704700100240B1
:101DB0000000FFF8FFFFF6FE08ED00E0F0B5026856
:101DC0001C4B1D4D1D4E1E4F1E4C4FF0804C98421B
:101DD00009D0A04207D0604505D0A84203D0B04248
:101DE00001D0B84204D122F0700E4A6842EA0E02D5
:101DF000984209D0A04207D0604505D0A84203D040
:101E0000B04201D0B84203D122F44075CA682A43D7
:101E10004D6922F080022A4302608A68C2620A6821
:101E20008262984201D0A04201D109690163012177
:101E30004161F0BD002C014000040040000800405A
:101E4000000C004000340140F0B5026A22F00102AB
:101E50000262036A42688469124E24F073050C68BA
:101E60002C4323F002058B682B430D4DA84201D073
:101E7000B04205D123F00807CB683B4323F00403AD
:101E8000A84201D0B04205D14D6922F440721543F9
:101E90008A692A4342608461496841630362F0BDF4
:101EA000002C014000340140F0B5026A22F010021B
:101EB0000262026A436884690D6824F4E64444EAD5
:101EC00005248D6822F0200242EA05120F4D104EC3
:101ED000A84201D0B04206D1CF6822F0800242EA87
:101EE000071222F04002A84201D0B04207D14D694A
:101EF00023F4406343EA85038D6943EA8503436025
:101F00008461496881630262F0BD0000002C0140D9
:101F100000340140F0B5026A22F480720262026A63
:101F20004368C46922F4007224F073050C68124EF1
:101F30002C438D6842EA05220E4DA84201D0B042E2
:101F400006D1CF6822F4006242EA072222F48062BE
:101F5000A84201D0B04207D14D6923F4405343EA6F
:101F600005138D6943EA05134360C4614968C16381
:101F70000262F0BD002C01400034014030B5026A1D
:101F800022F480520262046A4268C3690D6823F435
:101F9000E64343EA05238D6824F4005444EA0534FB
:101FA000084DA84202D0084DA84204D14D6922F440
:101FB000804242EA85124260C3614968016404625A
:101FC00030BD0000002C01400034014010B5406AD3
:101FD0000021C185C184FFF7CFFB10BD0168CA682D
:101FE00022F49072CA6001684A6922F001024A61D3
:101FF000202180F83A10704710B590F83A10222945
:1020000001D0022010BD8168B1F5805F11D0016957
:10201000002901681FD0496801F07F03816A4A1CCA
:1020200082620B70C18D491E0904090CC18518D04C
:102030002BE00269816A002A0268526805D0D2B298
:102040000A80816A491C8162ECE7C2F308020A80B7
:10205000816A891CF7E74A68816A4B1C83620A70AF
:10206000E0E70168CA6822F02002CA600168CA6815
:1020700022F48072CA6001684A6922F001024A6152
:10208000202180F83A10FFF79CFC002010BD0000D2
:102090002DE9F041044600680169E26821F44051ED
:1020A000114301612169A0680843616908432168FF
:1020B000CA6841F20C639A430243CA6020684169CE
:1020C000A26921F44071114341611E4920686425D1
:1020D0003226884202D1FEF719FF01E0FEF706FF23
:1020E00000EBC00101EB001160686FF01807800081
:1020F000B1FBF0F2B2FBF5F2B1FBF0F37A4303EB84
:102100008202B1FBF0F306EB0212B2FBF5F2B3FB75
:10211000F5F302F0F00202EB0312B1FBF0F3B1FBB6
:10212000F0F0B0FBF5F0784303EB800006EB001015
:10213000B0FBF5F0216800F00F0010448860BDE8A6
:10214000F08100000038014090F83910212901D0B9
:10215000022070478168B1F5805F016A0BD04A1C8C
:102160000262026809785160C18C491E0904090C99
:10217000C1840ED017E009880268C1F308015160DC
:1021800001690029016A02D0491C0162ECE7891C3F
:10219000FBE70168CA6822F08002CA600068C16873
:1021A00041F04001C160002070472DE9F0419846A0
:1021B00017460E460446069D1DE0681C1BD02DB137
:1021C000FEF760FDA0EB0800A84214D92068C168A2
:1021D00021F4D071C1602068416921F001014161A1
:1021E000202084F8390084F83A00002084F8380070
:1021F0000320BDE8F0812068006836EA000004D0C2
:102200000020B842D9D00020F3E70120F9E7000010
:1022100010B51748FFF7B2FA16480022164904789D
:1022200016485B2C01D0837853B143780A2B02D92E
:102230008270427004E0CC545B1C437001238370B5
:102240005D2C0DD183785BB141604B7803700C4BF2
:102250008C781C70CC785C700979997082704270AF
:10226000BDE81040012203490148FFF781BB00008F
:102270007831002034000020B83100202C000020EC
:102280003B000020FEE7000070B58AB00E46002536
:1022900004A903AA0695CDE9002182784178007847
:1022A00002AB00F0E3FD1A4C1848216A30F8110027
:1022B000FEF769F86FF00702FEF740F8FEF79DF8A9
:1022C0000246049009A908A8CDE90001DDE9020150
:1022D00007AB00F0CDFC9DF81C008DF818009DF8B0
:1022E00020008DF819009DF824008DF81A00314661
:1022F00006A800F0DDFB0A20FEF770FB206A401CF8
:102300002062DC2800D325620AB070BD6830000866
:10231000000000202DE9F74F044682B0154641F633
:1023200004014848FDF737FFDFF81C914FF0000E1D
:10233000DFF810B199F80000D9F81C3001461BE015
:10234000CA072CD000224FF01C0AC1EBC10600BF07
:1023500092FBFAFC0AFB1C27EFB3012F6CD0022F73
:102360006AD01B2F68D002EB8608C0272BF81870A4
:10237000521C1C2AECDB491CA942E1DB401C00F08A
:102380000100C9F81C3089F8000041F6040000F093
:102390001FFC05B0D220BDE8F04FFEF71FBB039A2B
:1023A000002793FBF2F602FB1633C1EBC1060BEBE1
:1023B000C60C2BF836E0CDF800C0ACF802E0ACF863
:1023C00004E0DA4654F823205278BA40120603D5C6
:1023D0004FF0FC0C02E02FE04FF0C00C07EB86083A
:1023E0000AEB4802A2F806C054F823C09CF800C0CB
:1023F0000CFA07FC5FEA0C6C02D54FF0FC0C01E014
:102400004FF0C00CA2F816C054F823C09CF802C0CC
:102410000CFA07FC5FEA0C6C02D54FF0FC0C01E0F3
:102420004FF0C00C7F1CA2F826C0082FCADB009A10
:102430005B1CA2F836E09EE702EB86082BF818E05A
:1024400096E7000094000020000000202DE9F05FD6
:102450000D46044641F6040B164659465B48FDF707
:102460009AFEB6FBF5F0B6FBF5F705FB1060DFF85A
:1024700060E1002300EB07099A4654496D1EDEF81F
:1024800018204DE0002648E05A4500D3002201EB19
:10249000420C21F812A0ACF802A00020ACF804A075
:1024A00012F1030254F823C09CF801C00CFA00FC9E
:1024B0005FEA0C6C02D54FF0FC0C01E04FF0C00C51
:1024C00021F812C054F823C09CF800C00CFA00FC9C
:1024D0005FEA0C6C02D54FF0FC0801E04FF0C00839
:1024E00001EB420CACF8108054F8238098F802807D
:1024F00008FA00F85FEA086802D54FF0FC0801E02E
:102500004FF0C008401C521CACF820800828C9DBE2
:10251000103221F812A0521C761CBE42B4DB5B1CA8
:10252000AB42AFDB75460026CEF818203AE05A459C
:1025300000D3002201EB420021F812A0A0F802A073
:10254000A0F804A00020D04612F1030254F8237032
:102550007F7887403F0601D5FC2700E0C02721F89F
:10256000127054F823703F7887403F0601D5FC274E
:1025700000E0C02701EB420CACF8107054F8237057
:10258000BF7887403F0601D5FC2700E0C027401CEC
:10259000521CACF820700828D8DB103221F81280C9
:1025A000521C761C4E45C2DB5C465846AA6100F0C0
:1025B0000FFBA869A04202D35046C5F818A01C30F2
:1025C000A861BDE8F05F1E20FEF708BA9400002065
:1025D000000000202DE9F84F0C460746164600255E
:1025E0004FF006094FF0040841F604017048FDF76A
:1025F000D2FDAB46DFF8B8E139E00EEB45012EF82D
:1026000015B0A1F802B0A1F804B000215A467046F6
:10261000ED1C7B788B401B0601D5FC2300E0C0231A
:1026200020F81530491C6D1C0829F2D300213B7895
:102630008B401B0601D5FC2300E0C02320F8153099
:10264000491C6D1C0829F2D30021BB788B401B0666
:1026500001D5FC2300E0C02320F81530491C6D1C77
:102660000829F2D3761E2EF81520B6B26D1C002E66
:10267000C3D1504800234569009508EB050A2A4656
:1026800027E0C3EBC3010020C2EBC20C01EB8107C2
:1026900000EB8C0101EBC70141F60406B14203D304
:1026A000B1FBF6F806FB18114FF01C08B0FBF8F66A
:1026B00008FB1606C6B1012E16D0022E14D01B2E12
:1026C00012D04FF0C0082EF81180401C1C28DFD318
:1026D000521C9245D5D85B1C4B45D0D300234FF4F8
:1026E000807ADDF800804EE02EF811B0EDE700BFF3
:1026F00003EB8300404400F17001514503D9001DF4
:102700000007000E00E0543000255F467246C0EB23
:10271000C00100BF02EBC10022F831704780878002
:10272000002066788640360602D54FF0FC0C01E0AA
:102730004FF0C00C00EB810602EB4606A6F806C07F
:1027400094F800C00CFA00FC5FEA0C6C02D54FF064
:10275000FC0C01E04FF0C00CA6F816C094F802C0C3
:102760000CFA00FC5FEA0C6C02D54FF0FC0C01E0A7
:102770004FF0C00C401CA6F826C00828D1D36D1C11
:102780001C2DC7D35B1CB3EB490FB1D3009809498B
:10279000401C5045486101DDC1F814B041F6040009
:1027A00000F016FABDE8F84F6E20FEF717B90000EA
:1027B00094000020000000202DE9F14F514A002133
:1027C00008469388D4889578128982B063F30F0005
:1027D00062F30F0164F31F408A460027A646934622
:1027E000494E00937AE00021C7EBC702914626F8D4
:1027F000321006EBC9020192518091800B4682B2E1
:10280000010C1FFA8AF400BF01FA03FC5FEA0C6CAA
:1028100002D54FF0FC0801E04FF0C00803EB890C33
:1028200006EB4C0CACF8068002FA03F85FEA086885
:1028300002D54FF0FC0801E04FF0C008ACF816805C
:1028400004FA03F85FEA086802D54FF0FC0801E0DB
:102850004FF0C0085B1CACF82680082BD4DBDDF8F9
:1028600004C00023F529ACF8363000D26DB10A2A35
:1028700000D965B1F52C00D25DB10A290CD95DB142
:10288000B1F10A0161F31F4015E00A31FAE70A3A93
:1028900006E051460A340BE0F52A04D21DB10A3293
:1028A00062F30F0007E00A2C0DD925B151460A3C0E
:1028B00064F30F018A461FFA8AF1F52901D3012535
:1028C00002E00A2900D800253FB90E494FEA104E10
:1028D0001FFA8AFB8D7081B200917F1C02998F4292
:1028E00081DB084800998180A0F806E0A0F808B0D4
:1028F00041F6040000F06CF9BDE8FE4F0A20FEF737
:102900006DB8000000000020940000202DE9F04187
:102910001A4AA2F10A0755787E78FF2D00D25EB1DF
:10292000147804B156B19378FF2B00D246B14DB163
:1029300046B16D1E55700FE06D1CFBE7641E05E08F
:102940005B1C08E0FF2C03D216B1641C147003E07A
:102950004BB10EB15B1E93709178FF2901D011B17C
:1029600003E0012100E0002179700146034800F0F6
:102970009FF8BDE8F0410A20FEF730B80A000020B9
:102980002DE9F04F91B08B4606AA0BA9CDE90012B4
:10299000827841780B26007805AB00F067FA414851
:1029A000414C0025406A0790404830F81500FDF77B
:1029B000EAFC6FF00702FDF7C1FCFDF71EFD0246C1
:1029C00006900EA90DA8CDE900010FAB0B99059853
:1029D00000F04EF99DF83C909DF834C09DF8387099
:1029E000002145E007984FF4E052284401FB06001F
:1029F000C0EBC000800090FBF2F302FB13024FF02B
:102A0000000E04EB420324F812E0A3F802E09A4619
:102A1000A3F804E04FEA0E000CFA00F31B0602D5FF
:102A20004FF0FC0801E04FF0C008131804EB43031B
:102A3000A3F8068009FA00F85FEA086802D54FF0AB
:102A4000FC0801E04FF0C008A3F8168007FA00F870
:102A50005FEA086802D54FF0FC0801E04FF0C008BB
:102A6000401CA3F826800828D6DBAAF836E0491CCB
:102A70009BFBF6F08842B5DC6D1CB54294DB09493E
:102A8000486A401C4862B0F5807F01DD0020486242
:102A900041F6040000F09CF83C20FDF79FFF11B0C8
:102AA000BDE8F08F000000209400002020320008D4
:102AB00070B50C46054641F604012148FDF76BFB55
:102AC0001F49002603220E804E808E802EE00023B8
:102AD00068789840000601D5FC2000E0C02021F86D
:102AE00012005B1CDBB2521C082BF1D300202B78A8
:102AF00083401B0601D5FC2300E0C02321F81230DF
:102B0000401CC0B2521C0828F1D30020AB7883408F
:102B10001B0601D5FC2300E0C02321F81230401C25
:102B2000C0B2521C0828F1D3641EA4B2002CCED12E
:102B300021F81260BDE87040521C90B200F048B815
:102B4000940000202DE9F041044641F604011D489F
:102B5000FDF721FB1C4800263346816A0E8003EBFB
:102B60004300002201EB001560789040000601D57B
:102B7000FC2700E0C02705EB4200478027789740FC
:102B80003F0601D5FC2700E0C0274782A778974081
:102B90003F0601D5FC2700E0C027521CD2B2478473
:102BA000082AE1D35B1CFF2BD9DD43F202004FF46E
:102BB0007A734652BDE8F04141F602020348FEF73F
:102BC000F1BB000094000020000000209C30002099
:102BD00002464FF47A7302490248FEF7E3BB000055
:102BE000940000209C300020014A024900F023B8E4
:102BF000592C0008880000200907090E002804DB72
:102C000000F1E02080F80014704700F00F0000F1A0
:102C1000E02080F8141D704702E008C8121F08C1A8
:102C2000002AFAD170477047002001E001C1121F4D
:102C3000002AFBD170472DE9F04116460F460446A5
:102C4000002503E03946B047641C6D1C207800283D
:102C5000F8D12846BDE8F08113B54FF6FF73012285
:102C600069460248FEF7AEFE00981CBD7831002090
:102C70002DE9FF5F1C46DDE90E768146FDF790FBEE
:102C80003C2190FBF1F0062190FBF1F201FB1208D0
:102C90004046FDF76AFB054648494846FDF710FBEC
:102CA0002946FDF7D5FA05464FF07E594846019969
:102CB000FDF7CEFA0299FDF7D1FA8346284601992D
:102CC000FDF7CCFA4946FDF7C6FA0299FDF7C6FAB8
:102CD000824629464846FDF7BBFA0199FDF7BEFA40
:102CE0004946FDF7B8FA0299FDF7B8FA344D814626
:102CF000B8F1060F60D2DFE808F0030D1E2F394A45
:102D000029460298FDF7AAFAFDF763FB20702946D1
:102D1000484608E029465046FDF7A0FAFDF759FB62
:102D2000207029460298FDF799FAFDF752FB38709A
:102D3000294658463BE029465846FDF78FFAFDF7ED
:102D400048FB207029460298FDF788FAFDF741FB01
:102D50003870294648462AE029465846FDF77EFA4B
:102D6000FDF737FB20702946504608E029464846C3
:102D7000FDF774FAFDF72DFB207029465846FDF744
:102D80006DFAFDF726FB3870294602980FE02946B8
:102D90000298FDF763FAFDF71CFB207029465846A0
:102DA000FDF75CFAFDF715FB387029465046FDF734
:102DB00055FAFDF70EFB3070BDE8FF9F0000704232
:102DC00000007F43FDF76CFFFEF7ACFFFEF770FEDF
:102DD000FEF758FEFEF7DCFEFEF728FFFEF7B4FE16
:102DE00000F0E6F8054D4FF4005400BF00F008F97C
:102DF00021462846FDF739FFF8E70000000C0140A6
:102E0000F0B50B30154D20F007010024144A0FE0F7
:102E100003688B420BD38B4205D95E1A431847686F
:102E2000C3E9006700E04368136002C004E0021DCC
:102E300010680028ECD12046002802D1286808B18B
:102E40000020F0BD064A07481060074A121A22F017
:102E50000702C0E9002401202860D7E79000002085
:102E60008C000020CC310020C86600202DE9F05FE6
:102E70001F4690460C46DDF828A0FDF77FFA494E24
:102E80003146FDF71DFA05462046FDF777FA314633
:102E9000FDF716FA04464046FDF770FA3146FDF795
:102EA0000FFA064621462846FDF7CEFA01D22846FB
:102EB00000E0204680463146FDF7C6FA01D2404682
:102EC00000E03046804621462846FDF7B3FA01D29D
:102ED000284600E0204681463146FDF7ABFA01D294
:102EE000494600E031464046FDF7B2F9814610F010
:102EF000FF4F4FF0000B11D029464046FDF79AFADC
:102F00001BD131462046FDF79FFA3146204608D8AE
:102F1000FDF79EF94946FDF7D3F92DE0C7F800B05B
:102F20002EE0FDF795F94946FDF7CAF91E49FDF770
:102F300095F91E49FDF73AF921E021464046FDF793
:102F400079FA09D129463046FDF782F94946FDF75D
:102F5000B7F94FF080410DE031464046FDF76AFA7F
:102F60000ED121462846FDF773F94946FDF7A8F929
:102F70004FF08141FDF71AF90B49FDF76FF9386001
:102F800018F0FF4F0AD041464846FDF799F9CAF8B4
:102F900000000B99C1F80080BDE8F09FCAF800B0AE
:102FA000F7E7000000007F43000070420000B443D8
:102FB00010B543F20400FFF723FF0A4908603C21E3
:102FC0000948FFF775FD0A20FDF708FD07A0FFF788
:102FD0000BFE05490122BDE81040491E0748FEF7D7
:102FE000C7BC0000280000203500002057533238AD
:102FF0003132425F544553540D0A000078310020AD
:10300000174801784FF48070082927D2DFE801F0D3
:1030100004080C1016181A2001461248FFF792BD3A
:1030200001461048FFF7ACBC01460E48FFF72CB92B
:103030000C490246C91EC81CFFF7CCBAFFF766BC94
:10304000FFF7BABB024607480821401DFFF762B9E7
:10305000024604480821401DFFF7F8B970470000F8
:103060002C0000203B0000200000000000000000B9
:103070000000000000000000080008000800080030
:103080000800090009000900090009000A000A00F7
:103090000A000A000A000B000B000B000C000C00D9
:1030A0000D000D000E000E000F000F0010001000AC
:1030B0001100120012001300140014001500160075
:1030C00017001800190019001A001B001C001E0030
:1030D0001F002000210022002400250026002800D7
:1030E00029002B002D002E00300032003400360065
:1030F00038003A003C003E004100430046004800D2
:103100004B004E005100540057005A005E00610011
:10311000650069006D00710075007A007E00830013
:1031200088008D00920098009E00A400AA00B000C4
:10313000B700BE00C500CD00D500DD00E500EE0003
:10314000F70000010001F700EE00E500DD00D5000A
:10315000CD00C500BE00B700B000AA00A4009E00CC
:10316000980092008D00880083007E007A00750030
:1031700071006D006900650061005E005A00570033
:10318000540051004E004B004800460043004100EF
:103190003E003C003A003800360034003200300077
:1031A0002E002D002B0029002800260025002400D9
:1031B0002200210020001F001E001C001B001A001E
:1031C000190019001800170016001500140014004B
:1031D0001300120012001100100010000F000F0069
:1031E0000E000E000D000D000C000C000B000B007B
:1031F0000B000A000A000A000A000A000900090080
:10320000090009000900080008000800080008007B
:1032100000000000000000000000000000000000AE
:103220000A001E0032006400BE000001BE006400FF
:1032300032001E000A000000000000000000010231
:10324000030406070809000000000102030400004F
:10325000703200080000002094000000182C0008C4
:103260000433000894000020346A0000282C000871
:103270000000000064006400640000000000000022
:10328000000100000000000000000000000000003D
:10329000000000000000000000000000000000002E
:1032A0000000000000000000FFFFFF000000000021
:1032B00060000020630000206600002069000020FC
:1032C0006C0000206F0000207200002075000020BC
:1032D000FF0000FFFF0000FF0000FFFF0000FFFFF6
:1032E00000FFFF20008000800100000010000000AF
:1032F000000000000024F4000000000000000000B6
:0433000000000000C9
:0400000508000131BD
:00000001FF
