:020000040800F2
:10000000583C002045010008E5240008C7220008EC
:10001000E1240008CD060008212D000800000000A2
:10002000000000000000000000000000E1250008C2
:10003000E106000800000000E7240008E3250008AE
:100040005F0100085F0100085F0100085F01000810
:100050005F0100085F0100085F010008EF0600086B
:100060005F0100085F0100085F0100085F010008F0
:100070005F0100085F010008D10600085F01000869
:100080005F0100085F0100085F0100085F010008D0
:100090005F0100085F0100085F0100085F010008C0
:1000A0005F0100085F0100085F0100085F010008B0
:1000B0005F0100085F0100085F0100085F010008A0
:1000C0005F0100085F0100085F0100085F01000890
:1000D0005F0100086D2C00085F0100085F01000847
:1000E000E30600085F0100085F0100085F010008E7
:1000F0005F0100085F0100085F0100085F01000860
:100100005F0100085F0100085F0100085F0100084F
:100110005F0100085F0100085F0100085F0100083F
:100120005F0100085F0100085F0100085F0100082F
:10013000DFF80CD000F07EFA00480047053F0008C9
:10014000583C00200648804706480047FEE7FEE787
:10015000FEE7FEE7FEE7FEE7FEE7FEE7FEE7FEE777
:100160005126000831010008202A04DB203A21FA38
:1001700002F00021704721FA02F3D040C2F12002C0
:100180009140084319467047D2B201E000F8012BB4
:10019000491EFBD270470022F6E710B513460A4607
:1001A00004461946FFF7F0FF204610BDF0B480EA80
:1001B0000102D40F4200B2EB410F02D202460846C0
:1001C00011464A0042D0C30DDDB2C1F3C752AD1A89
:1001D000202D35DAC1F3160141F4000204B1524278
:1001E000C5F1200602FA06F12A411044B3EBD05FB4
:1001F00023D0C4B1012DA0EBC35009DCF0BC4FF0FB
:10020000004202EAC352DBB200F5000000F087B9F9
:10021000400000F1807000EBC350A0F1807040EA14
:10022000D170490009E0490841EAC071A0EBC35010
:1002300000F50000400800EBC350F0BC00F066B9C8
:100240006142012202EB4101001BF6E7F0BC70475E
:1002500081F00041AAE780F00040A7E780EA0102B0
:1002600010B502F00043400022D04A001FD0010E1A
:1002700001EB1261C0F35600C2F3560240F40000D5
:1002800042F40002A0FB022000047F39140400D0D5
:10029000401C50EA124001D44000491EC2B20C0674
:1002A00004EBD010401C4008802A02D003E000205C
:1002B00010BD20F00100002900DA0020184310BD15
:1002C00030B480EA010202F0004530F0004221F033
:1002D000004013D090B1C30DD40DC2F31601C0F38A
:1002E0001600E41A41F4000140F400027D3491420A
:1002F00001D3641C00E04900002C02DA30BC00206D
:1003000070474FF400000023914201D3891A034340
:1003100040084FEA4101F7D151B1914202D14FF06B
:10032000004105E002D24FF0010101E06FF0010150
:1003300003EBC450284430BC00F0E8B82DE9F04D80
:1003400081EA030404F0004B21F0004514464FF00D
:10035000000A23F0004150EA050220D054EA0102CD
:100360001DD0C5F30A570246C5F31303C1F31300AA
:10037000C1F30A5640F4801543F48013A7EB060836
:10038000101BD64608F2FD3873EB050002D308F1C6
:10039000010801E092185B41B8F1000F03DA002078
:1003A0000146BDE8F08D00204FF4801106468446DA
:1003B0000EE0171B73EB050705D3121B63EB050358
:1003C00006434CEA010C49084FEA300092185B41A1
:1003D00050EA0107EDD152EA030012D082EA04008C
:1003E00083EA0501084305D0101BAB4106D2012268
:1003F000002306E000224FF0004302E06FF001020C
:1004000053101AEB06004CEB085110EB0A0041EBBD
:100410000B01BDE8F04D00F0B0B8C10F80EAE0700C
:100420000844CA079623002100F079B896230022D9
:10043000114600F074B80EB540F23341029100212C
:10044000CDE900110A460B4600F0A6F803B000BD46
:1004500000F0004220F00040C10DC0F3160040F44F
:1004600000007F2901DA00207047962903DCC1F1E2
:100470009601C84001E096398840002AF4D04042F5
:10048000704720F00040C10DC0F3160040F400009A
:100490007F2901DA00207047962903DCC1F196011B
:1004A000C840704796398840704701F0004330B427
:1004B00021F0004150EA010206D00A0DA2F5607257
:1004C000C1F31301002A02DC30BC00207047440F46
:1004D00044EAC104C100E01830BC00EBC25000F097
:1004E00015B80000002801DBC0F10040002901DB45
:1004F000C1F1004181427047002801DBC0F100409A
:10050000002901DBC1F10041884270470029A8BFE2
:100510007047401C490008BF20F00100704710B42C
:10052000B0FA80FC00FA0CF050EA010404BF10BCE1
:10053000704749B1CCF1200421FA04F411FA0CF10E
:1005400018BF012121430843A3EB0C01CB1D4FEA47
:1005500000614FEA102042BF002010BC704700EB42
:10056000C35010440029A4BF10BC7047401C490070
:1005700008BF20F0010010BC704710B5141E73F1C5
:10058000000408DA401C41F1000192185B411A4353
:1005900001D120F0010010BD2DE9F04D92469B469F
:1005A00011B1B1FA81F202E0B0FA80F22032904645
:1005B00000F052F804460F4640EA0A0041EA0B01F7
:1005C00053465A46084313D0114653EA010019D046
:1005D000C8F140025046FFF7C7FD05460E4650469B
:1005E0005946424600F038F8084305D0012004E09F
:1005F00020463946BDE8F08D0020054346EAE07606
:100600002C4337430A986305E40AA0EB0800002254
:10061000FD0A44EA47540A3002D500200146E9E7C2
:10062000010510196941DDE9084500196941BDE876
:10063000F04DA2E7064C074D06E0E06840F00103EC
:1006400094E8070098471034AC42F6D3FFF774FDE6
:10065000F443000814440008202A04DB203A00FA7E
:1006600002F1002070479140C2F1200320FA03F309
:1006700019439040704770B58C1810F8015B15F065
:10068000070301D110F8013B2A1106D110F8012B04
:1006900003E010F8016B01F8016B5B1EF9D12B0729
:1006A00005D40023521E0DD401F8013BFAE710F8DF
:1006B000013BCB1A921C03E013F8015B01F8015BCC
:1006C000521EF9D5A142D8D3002070BD00BFFEE76D
:1006D00010B5024800F0E6F810BD0000C40200208A
:1006E000704710B54FF4004000F032FB10BD10B55C
:1006F000022000F02DFB10BD7047000070B50446CD
:10070000002594F82100022803D00420A0630125CD
:10071000C1E02068006820F00E00216808602068B1
:10072000006820F00100216808605C492068884268
:1007300052D95A4978392068884201D1012047E0CE
:10074000564964392068884201D1102040E053495D
:1007500050392068884201D1801539E04F493C3931
:100760002068884201D1801432E04C492839206841
:10077000884202D14FF480302AE048491439206879
:10078000884202D14FF4801022E044492068884218
:1007900001D140041CE042492068884201D1012077
:1007A00016E03F4914312068884201D110200FE043
:1007B0003B4928312068884201D1801508E038493A
:1007C0003C312068884201D1801401E04FF4803030
:1007D0003349091F086051E0304978392068884260
:1007E00001D1012047E02D4964392068884201D1B8
:1007F000102040E0294950392068884201D18015F5
:1008000039E026493C392068884201D1801432E021
:10081000224928392068884202D14FF480302AE0EA
:100820001E4914392068884202D14FF4801022E01A
:100830001A492068884201D140041CE01849206808
:10084000884201D1012016E0154914312068884200
:1008500001D110200FE0124928312068884201D1CF
:10086000801508E00E493C312068884201D180148F
:1008700001E04FF48030094980394860012084F854
:10088000210000BF002084F8200000BF606B10B181
:100890002046616B8847284670BD000080000240FA
:1008A0000804024070B50446E06B056820680668DD
:1008B00094F84010042088402840002875D006F0A5
:1008C00004000028FAD02068006800F0200028B951
:1008D0002068006820F0040021680860D54920687D
:1008E000884254D9D34978392068884201D10420FC
:1008F00049E0D04964392068884201D1402042E073
:10090000CC4950392068884201D100153BE0C949E3
:100910003C392068884202D14FF4804033E0C54919
:1009200028392068884202D14FF480202BE0C14949
:1009300014392068884202D14FF4800023E0BD4979
:100940002068884201D1C0041DE0BB49206888426C
:1009500001D1042017E0B84914312068884201D140
:10096000402010E0B44928312068884201D10015A8
:1009700009E0B1493C312068884202D14FF48040FF
:1009800001E04FF48020AC49091F086054E0A949F8
:1009900078392068884201D104204AE0A5496439A9
:1009A0002068884202D1402043E04CE0A149503900
:1009B0002068884201D100153BE09E493C392068FF
:1009C000884202D14FF4804033E09A4928392068A8
:1009D000884202D14FF480202BE0964914392068D8
:1009E000884202D14FF4800023E092492068884277
:1009F00001D1C0041DE090492068884201D1042043
:100A000017E08D4914312068884201D1402010E060
:100A1000894928312068884201D1001509E08649BA
:100A20003C312068884202D14FF4804001E04FF40D
:100A30008020804980394860E06A002802D0204642
:100A4000E16A8847F4E094F840100220884028408A
:100A5000002871D006F002000028FAD02068006853
:100A600000F0200040B92068006820F00A002168EA
:100A70000860012084F821006E492068884254D91A
:100A80006C4978392068884201D1022049E06949DF
:100A900064392068884201D1202042E065495039FC
:100AA0002068884201D140153BE062493C3920680A
:100AB000884202D14FF4005033E05E492839206863
:100AC000884202D14FF400302BE05A491439206893
:100AD000884202D14FF4001023E056492068884232
:100AE00001D180041DE054492068884201D10220D0
:100AF00017E0514914312068884201D1202010E0CC
:100B00004D4928312068884201D1401509E04A4901
:100B10003C312068884202D14FF4005001E04FF48C
:100B200000304549091F086054E04249783920687F
:100B3000884202D102204AE057E03E4964392068E9
:100B4000884201D1202042E03A4950392068884249
:100B500001D140153BE037493C392068884202D139
:100B60004FF4005033E0334928392068884202D1DD
:100B70004FF400302BE02F4914392068884202D10D
:100B80004FF4001023E02B492068884201D18004F3
:100B90001DE029492068884201D1022017E026493A
:100BA00014312068884201D1202010E022492831E8
:100BB0002068884201D1401509E01F493C31206876
:100BC000884202D14FF4005001E04FF4003019493F
:100BD0008039486000BF002084F8200000BFA06A70
:100BE00030B32046A16A884722E094F840100820DC
:100BF00088402840E0B106F00800C8B120680068CD
:100C000020F00E002168086094F840100120884010
:100C1000E16B48600120A06384F8210000BF002040
:100C200084F8200000BF206B10B12046216B88475C
:100C300070BD00008000024008040240014600220E
:100C400009B9012070471E4B086898420BD21D4B12
:100C50000868C01A1423B0FBF3F080000864194838
:100C60000838C8630AE0164B0868C01A1423B0FBA2
:100C7000F3F08000086412480838C863022081F845
:100C800021000868026843F6F0708243D1E901034D
:100C90001843CB6818430B6918434B6918438B6999
:100CA0001843CB6918430243086802600020886338
:100CB000012081F82100002081F8200000BFC1E759
:100CC000080402400800024070B5044600F004FA2F
:100CD00006462546681C10B104480078054400BF4C
:100CE00000F0FAF9801BA842FAD370BD1802002068
:100CF00010B50446002000E0401C4FF6FF7188420A
:100D0000FADB022C0FD102210E4800F0CFF90128A6
:100D100009D10D4800780B2811DA0B480078401CE7
:100D2000094908700BE0B4F5004F08D10648007877
:100D3000002804DD04480078401E03490870034879
:100D4000046010BD000C0140C001002014040140EB
:100D500010B5044604480068204020B102480460F1
:100D60002046FFF7C5FF10BD140401402DE9F847E8
:100D7000024600239C467BE14FF0010808FA03F489
:100D8000D1F8008008EA0400A0427DD1DFF8F4A287
:100D9000D1F80480A8EB0A09D0453AD014DCB8F1A8
:100DA000030F50D009DCB8F1000F31D0B8F1010FBA
:100DB0001CD0B8F1020F49D120E0B8F1110F18D0C2
:100DC000B8F1120F42D11EE0B9F5881F25D006DC1C
:100DD000B9F5803F20D0B9F5801F37D11AE0B9F5B9
:100DE000001F18D0B9F5041F30D117E0D1F80CC09E
:100DF0002DE0D1F80C8008F1040C28E0D1F80C802B
:100E000008F1080C23E0D1F80C8008F10C0C1EE06E
:100E100000BF00BF00BF00BF00BF00BFD1F8088007
:100E2000B8F1000F02D14FF0040C0BE0D1F80880AC
:100E3000B8F1010F03D14FF0080C146102E04FF03C
:100E4000080C546103E04FF0000C00E000BF00BF4D
:100E5000FF2801D8904601E002F104084646FF2829
:100E600002D84FEA830803E0A3F108084FEA880894
:100E70004746D6F800804FF00F0909FA07F928EA2B
:100E800009080CFA07F900E07AE048EA0908C6F810
:100E90000080D1F8048008F08058B8F1805F6FD1ED
:100EA00000BFDFF8E481D8F8188048F00108DFF8C7
:100EB000D891C9F81880C846D8F8188008F00108F9
:100EC000CDF8008000BF00BF4FEAB9384FEA930960
:100ED00058F829504FEA83784FEA18794FF00F08F5
:100EE00008FA09F825EA0805DFF8A081424502D191
:100EF0004FF0000824E0DFF89881424502D14FF01E
:100F000001081DE0DFF88C81424502D14FF0020854
:100F100016E0DFF88481424502D14FF003080FE06C
:100F2000DFF87881424502D14FF0040808E0DFF88D
:100F30007081424502D14FF0050801E04FF00608EC
:100F40004FEA83794FEA197908FA09F848EA050562
:100F5000DFF850814FEA930948F82950D1F804800E
:100F600008F48038B8F5803F0BD1DFF83C81D8F821
:100F7000008048EA0008DFF83091C9F800800AE0F4
:100F800075E0DFF82481D8F8008028EA0008DFF84F
:100F90001891C9F80080D1F8048008F40038B8F539
:100FA000003F0ED1DFF8008108F10408D8F8008076
:100FB00048EA0008DFF8F09009F10409C9F8008058
:100FC0000DE0DFF8E48008F10408D8F8008028EA92
:100FD0000008DFF8D49009F10409C9F80080D1F8BD
:100FE000048008F48018B8F5801F0ED1DFF8B880AF
:100FF00008F10808D8F8008048EA0008DFF8A8904F
:1010000009F10809C9F800800DE0DFF89C8008F1BB
:101010000808D8F8008028EA0008DFF88C9009F169
:101020000809C9F80080D1F8048008F40018B8F560
:10103000001F0ED1DFF8708008F10C08D8F800808E
:1010400048EA0008DFF8609009F10C09C9F800804F
:101050000DE0DFF8548008F10C08D8F8008028EA89
:101060000008DFF8449009F10C09C9F800805B1C06
:10107000D1F8008028FA03F8B8F1000F7FF47CAEB5
:10108000BDE8F88700001110001002400008014080
:10109000000C014000100140001401400018014004
:1010A000001C014008000140000401400246936812
:1010B0000B400BB1012000E000207047C2680A40DD
:1010C0000AB1416100E0016170470AB1016101E0CC
:1010D0000B0403617047000001480068704700007E
:1010E00010020020034800680349097808440149B8
:1010F00008607047100200201802002010B5084850
:10110000006840F0100006490860032000F0A8F8CD
:10111000002000F007F800F02BF8002010BD0000C0
:101120000020024070B504460E4800784FF47A71F2
:10113000B1FBF0F00C490968B1FBF0F5284600F06E
:1011400062FD08B1012070BD102C07D2002221469B
:10115000501E00F047F80548046001E00120F2E766
:101160000020F0E7180200201C02002014020020DA
:1011700008B500BF1148806940F001000F4988613F
:101180000846806900F00100009000BF00BF00BF6A
:101190000846C06940F08050C8610846C06900F048
:1011A0008050009000BF00BF00BF0549486820F094
:1011B000E06040F00070486000BF08BD00100240D1
:1011C0000000014001460846002809DB00F01F032B
:1011D00001229A4043099B0003F1E023C3F8002158
:1011E00000BF70472DE9F05F80460D461646002788
:1011F00002F04EFD074639462A46334601F0070005
:10120000C0F1070ABAF1040F02D94FF0040A01E055
:10121000C0F1070AD14600F1040ABAF1070F02D261
:101220004FF0000A01E0A0F1030AD4464FF0010A92
:101230000AFA09FAAAF1010A0AEA020A0AFA0CFAF7
:101240004FF0010B0BFA0CFBABF1010B0BEA030B9C
:101250004AEA0B042146404602F022FDBDE8F09F19
:1012600000BF00F00702064B19684FF6FF03194054
:10127000044B0B4343EA0221014B196000BF704746
:101280000CED00E00000FA0570B504460D460CB9FF
:10129000012070BD5A48006800F00700A8420ED235
:1012A0005748006820F00700284355490860084661
:1012B000006800F00700A84201D00120E9E720788B
:1012C00000F0020002281DD1207800F0040004285C
:1012D00005D14C48406840F4E0604A4948602078B5
:1012E00000F00800082805D14648406840F46050E6
:1012F000444948604348406820F0F000A168084332
:1013000040494860207800F0010078B36068012807
:1013100006D13C48006800F4003090B90120B8E7DD
:101320006068022806D13748006800F0007040B9B4
:101330000120AEE73348006800F0020008B9012040
:10134000A7E73048406820F00300616808432D4952
:101350004860FFF7C1FE064609E0FFF7BDFE801BAF
:1013600041F28831884202D9032092E707E02548FC
:10137000406800F00C006168B0EB810FEDD12048AF
:10138000006800F00700A8420ED91D48006820F050
:10139000070028431A4908600846006800F0070063
:1013A000A84201D0012074E7207800F0040004284E
:1013B00007D11448406820F4E060E168084311490F
:1013C0004860207800F00800082808D10D484068DF
:1013D00020F46050216940EAC1000A49486000F0E9
:1013E0003FF808494968C1F30311074A515CC840F6
:1013F0000649086006480068FFF794FE002048E7A9
:101400000020024000100240DA4300081C020020C5
:101410001402002001480068704700001C020020F0
:1014200000B5FFF7F7FF04494968C1F30221034AF9
:10143000515CC84000BD000000100240EA430008B3
:1014400000B5FFF7E7FF04494968C1F3C221034A29
:10145000515CC84000BD000000100240EA43000893
:10146000F0B585B00FF26C0C9CE8E01001A8A0E884
:10147000E0101CA52D680095002100220023002407
:101480000020194D696801F00C05F5B1042D02D05A
:10149000082D19D101E0154819E001ADC1F38346CB
:1014A000AC5D01F4803555B10F4D6D68C5F3404515
:1014B0001DF805200D4D6543B5FBF2F302E00C4D20
:1014C00004FB05F3184602E000BF084800BF00BF58
:1014D00005B0F0BD02030405060708090A0B0C0D50
:1014E0000E0F1010010200000010024000127A00DE
:1014F00000093D00F8B504460CB90120F8BD20787C
:1015000000F00100002878D0F848406800F00C0096
:1015100004280CD0F548406800F00C00082811D1D0
:10152000F248406800F48030B0F5803F0AD1EF48BF
:10153000006800F4003000285FD0606800285CD1AB
:101540000120DBE700BF6068B0F5803F06D1E748C7
:10155000006840F48030E549086028E0606858B9C8
:10156000E248006820F48030E049086008460068DE
:1015700020F4802008601AE06068B0F5A02F0BD13D
:10158000DA48006840F48020D849086008460068BE
:1015900040F4803008600AE0D448006820F48030CD
:1015A000D24908600846006820F48020086000BF27
:1015B000606888B1FFF790FD054606E0FFF78CFDF7
:1015C000401B642801D9032098E7C848006800F44C
:1015D00000300028F2D010E0FFF77EFD054606E05F
:1015E000FFF77AFD401B642801D9032086E7BF4836
:1015F000006800F400300028F2D1207800F00200EA
:10160000022857D1B948406800F00C0050B1B748E3
:10161000406800F00C00082818D1B448406800F475
:10162000803098B9B148006800F0020020B120690C
:10163000012801D0012061E7AC48006820F0F800E3
:10164000616940EAC100A949086033E02069E8B156
:101650000120A7490860FFF73FFD054606E0FFF7B8
:101660003BFD401B022801D9032047E79F48006843
:1016700000F002000028F2D09C48006820F0F8003A
:10168000616940EAC1009949086013E00020984967
:101690000860FFF721FD054606E0FFF71DFD401B32
:1016A000022801D9032029E79048006800F00200D1
:1016B0000028F2D1207800F0080008282DD1A06978
:1016C000B8B101208B490860FFF706FD054606E02A
:1016D000FFF702FD401B022801D903200EE78348D3
:1016E000406A00F002000028F2D0012000F0FCFE69
:1016F00013E000207F490860FFF7EEFC054606E096
:10170000FFF7EAFC401B022801D90320F6E67748E0
:10171000406A00F002000028F2D1207800F00400B6
:10172000042873D100277148C06900F0805070B957
:1017300000BF6E48C06940F080506C49C8610846DF
:10174000C06900F08050009000BF00BF01276A48C8
:10175000006800F48070B0B96748006840F4807099
:1017600065490860FFF7B8FC054606E0FFF7B4FCE2
:10177000401B642801D90320C0E65F48006800F4DC
:1017800080700028F2D000BFE068012806D15748D9
:10179000006A40F001005549086227E0E06858B946
:1017A0005248006A20F00100504908620846006A69
:1017B00020F00400086219E0E06805280BD14B48CE
:1017C000006A40F00400494908620846006A40F097
:1017D000010008620AE04548006A20F00100434920
:1017E00008620846006A20F00400086200BFE06852
:1017F000A0B1FFF771FC054609E0FFF76DFC401B47
:1018000041F28831884202D9032077E622E0374846
:10181000006A00F002000028EFD012E0FFF75CFC45
:10182000054608E0FFF758FC401B41F2883188422A
:1018300001D9032062E62D48006A00F0020000286A
:10184000F0D1012F05D12948C06920F080502749E7
:10185000C86100BFE069C8B32448406800F00C00CC
:10186000082860D0E069022848D100202049086695
:10187000FFF732FC054606E0FFF72EFC401B02286E
:1018800001D903203AE61948006800F000700028EA
:10189000F2D1206AB0F5803F07D11448406820F4A7
:1018A0000030A168084311494860D4E908010843A1
:1018B0000E49496821F4741108430C49486001201D
:1018C0000B490866FFF708FC054607E03DE0FFF717
:1018D00003FC401B022801D903200FE603480068DF
:1018E00000F000700028F2D02FE00000001002404D
:1018F000000042428004424200700040002014492F
:101900000866FFF7E9FB054606E0FFF7E5FB401B2D
:10191000022801D90320F1E50E48006800F00070AC
:101920000028F2D111E0E069012800D1E6E509487C
:10193000466806F48031206A814204D106F47011B1
:10194000606A814201D00120D8E50020D6E5000080
:10195000000042420010024010B504460CB90120BC
:1019600010BD606A00B900BF0021A16294F8510067
:1019700028B9002084F85000204600F031F80220F9
:1019800084F851002068006820F040002168086059
:10199000D4E901010843E16808432169084361690A
:1019A0000843218B01F400710843E1690843216A6F
:1019B0000843A16A0843216808600421A06901EA7C
:1019C0001040216848602068C06920F400602168E8
:1019D000C86100206065012084F851000020BFE745
:1019E00010B586B004460020029003900490059044
:1019F0001949206888422DD100BF1848C06940F4B9
:101A000000401649C8610846C06900F400400190D2
:101A100000BF00BF00BF0846806940F00800886131
:101A20000846806900F00800019000BF00BF282030
:101A30000290022003900320059002A90848FFF7B6
:101A400095F91020029000200390049002A9044808
:101A5000FFF78CF906B010BD003C004000100240BA
:101A6000000C01402DE9F84F0446884616461D46F5
:101A70004FF0000A00BF94F85000012802D1022064
:101A8000BDE8F88F012084F8500000BFFFF724FB69
:101A90000746B14694F85100012802D04FF0020ADF
:101AA000A7E0B8F1000F00D016B94FF0010AA0E08E
:101AB000032084F8510000206065C4F83080A686B9
:101AC000E686A063A087E08760642064A068B0F524
:101AD000004F05D12068006840F48040216808600C
:101AE0002068006800F04000402805D020680068A9
:101AF00040F0400021680860E068B0F5006F2FD129
:101B0000606810B1B9F1010F09D1206B008821681C
:101B1000C860206B801C2063E08E401EE0861BE0C6
:101B20002068806800F0020002280AD1206B00883B
:101B30002168C860206B801C2063E08E401EE08618
:101B40000AE0FFF7C9FAC01BA84201D3681C00B91C
:101B500015B94FF0030A4CE0E08E0028E0D12EE0EA
:101B6000606810B1B9F1010F09D1206B00782168CC
:101B70000873206B401C2063E08E401EE0861BE053
:101B80002068806800F0020002280AD1206B0078EB
:101B900021680873206B401C2063E08E401EE086A5
:101BA0000AE0FFF799FAC01BA84201D3681C00B9EC
:101BB00015B94FF0030A1CE0E08E0028E0D13A4648
:101BC0002946204600F0A4FC08B120206065A068EA
:101BD00050B900BF002000902068C06800902068C5
:101BE0008068009000BF00BF606D08B14FF0010A2F
:101BF00000BF012084F8510000BF002084F850008D
:101C000000BF50463CE770B504462546681EB0F15B
:101C1000807F01D301200FE0681E4FF0E021486172
:101C20000F214FF0FF3002F03BF800204FF0E02191
:101C3000886107200861002070BD10B503460022AE
:101C400000BF93F83C00012801D1022010BD012003
:101C500083F83C0000BF22F0FF00CC6840EA040299
:101C600022F440708C6840EA040222F480604C68E0
:101C700040EA040222F400600C6840EA040222F404
:101C800080500C6940EA040222F400504C6940EA9A
:101C9000040222F48040CC6940EA040218684264DD
:101CA00000BF002083F83C0000BF00BFCEE710B5A6
:101CB000024600BF92F83C00012801D1022010BD6D
:101CC000012082F83C0000BF022082F83D0010682D
:101CD00043681068846823F070030868034324F0A5
:101CE00080044868044310684360106884600120E1
:101CF00082F83D0000BF002082F83C0000BF00BF1A
:101D0000DDE7000010B586B0044600200290039085
:101D1000049005900E492068884216D100BF0D48F6
:101D2000806940F004000B4988610846806900F032
:101D30000400019000BF00BFC8140290022003906D
:101D4000059002A90448FFF711F806B010BD000085
:101D5000002C0140001002400008014070B504460C
:101D60000D46164600BF94F83C00012801D1022020
:101D700070BD012084F83C0000BF022084F83D00C3
:101D800036B1042E1BD0082E31D00C2E5ED145E08A
:101D90002946206800F0D6FC2068806940F00800E1
:101DA000216888612068806920F0040021688861CA
:101DB00020688069296908432168886147E02946CD
:101DC000206800F0F7FC2068806940F4006021681A
:101DD00088612068806920F48060216888612068BB
:101DE0008069296940EA0120216888612FE029463D
:101DF000206800F01DFD2068C06940F008002168DF
:101E0000C8612068C06920F004002168C8612068AA
:101E1000C069296908432168C86118E0294620681B
:101E200000F042FD2068C06940F400602168C8618C
:101E30002068C06920F480602168C8612068C0699A
:101E4000296940EA01202168C86100E000BF00BFA5
:101E5000012084F83D0000BF002084F83C0000BF52
:101E600000BF85E710B504460CB9012010BD94F8F9
:101E70003D0028B9002084F83C00204600F00CF812
:101E8000022084F83D00211D206800F00DFC012097
:101E900084F83D000020E9E738B504461C49206875
:101EA000884233D100BF1B48806940F40060194963
:101EB00088610846806900F40060009000BF00BFA0
:101EC00015481649086010204860002113488160B9
:101ED0008021C16049000161890041610021816167
:101EE0004FF48051C161FEF7A9FE08B1FEF704FC72
:101EF00000BF0A4921630846446200BF00BFA163D6
:101F0000446200BF00BF6163446200BF38BD00008F
:101F1000002C01400010024044000240C402002096
:101F2000704700002DE9F0470446206805682068E6
:101F3000C668206847694FF00008C14605F00F08E1
:101F4000B8F1000F0AD105F0200038B106F02000EA
:101F500020B1204600F0FCFCBDE8F087B8F1000F8E
:101F60006DD007F0010018B906F49070002866D013
:101F700005F0010030B106F4807018B1E06B40F05C
:101F80000100E06305F0040030B107F0010018B172
:101F9000E06B40F00200E06305F0020030B107F0B2
:101FA000010018B1E06B40F00400E06305F00800A8
:101FB00030B107F0010018B1E06B40F00800E063B9
:101FC000E06B68B305F0200028B106F0200010B1E6
:101FD000204600F0BDFC20684069C0F38019E06B2A
:101FE00000F0080010B9B9F1000F22D0204600F02F
:101FF0008FFC2068406900F04000B0B12068406963
:1020000020F0400021684861606B50B11748616B57
:102010004863606BFEF772FB10B1606B416B8847E1
:102020000CE02046FFF77CFF08E02046FFF778FF32
:1020300004E02046FFF774FF0020E0638CE705F022
:10204000800030B106F0800018B1204600F0A4FDF9
:1020500082E705F0400030B106F0400018B120469C
:1020600000F066FC78E700BF76E70000FD28000876
:1020700010B504460CB9012010BDA06900B100E004
:1020800000BF94F8390028B9002084F838002046B1
:1020900000F028F8242084F839002068C06820F473
:1020A00000502168C860204600F0A6FC2068006946
:1020B00020F49040216808612068406920F02A00DF
:1020C000216848612068C06840F400502168C860F9
:1020D0000020E063202084F8390084F83A000020D2
:1020E000CAE7000010B586B00446002002900390B5
:1020F000049005901E492068884236D100BF1D48D3
:10210000806940F480401B4988610846806900F47A
:102110008040019000BF00BF00BF0846806940F0CA
:10212000040088610846806900F00400019000BF47
:1021300000BF48150290022003900320059002A9D9
:102140000D48FEF713FE4FF48060029000200390CC
:10215000049002A90848FEF709FE00221146252036
:10216000FFF740F82520FFF72DF806B010BD00005E
:1021700000380140001002400008014010B503463D
:1021800093F83A0020282FD101B10AB9012010BDDF
:1021900000BF93F83800012801D10220F7E70120A1
:1021A00083F8380000BF99629A85DA850020D863E9
:1021B000222083F83A0000BF002083F8380000BFD7
:1021C0001868C06840F480701C68E0601868406956
:1021D00040F001001C6860611868C06840F0200091
:1021E0001C68E0600020D2E70220D0E770472DE9AC
:1021F000F84304460D4616461F464FF0000994F872
:10220000390020285CD105B116B90120BDE8F8835A
:1022100000BF94F83800012801D10220F6E7012020
:1022200084F8380000BF0020E063212084F83900E2
:10223000FEF752FF8146A684E6842BE0E08C401E28
:10224000E084A068B0F5805F16D14B460022802163
:102250002046009700F0D4FC08B10320D6E7A8463A
:10226000B8F80000C0F3080021684860206908B988
:10227000AD1C0FE06D1C0DE04B4600228021204676
:10228000009700F0BDFC08B10320BFE715F8010B73
:1022900021684860E08C0028D0D14B4600224021C4
:1022A0002046009700F0ACFC08B10320AEE72020E8
:1022B00084F8390000BF002084F8380000BFA5E78B
:1022C0000220A3E7704700BFFEE7000008B500BF8B
:1022D0000A48406940F001000849486108464069E1
:1022E00000F00100009000BF00BF002211460E2048
:1022F000FEF778FF0E20FEF765FF08BD00100240D4
:1023000000B585B00020019002900390049000BFBA
:102310002448806940F008002249886108468069A5
:1023200000F00800009000BF00BF00BF08468069B1
:1023300040F0040088610846806900F004000090C5
:1023400000BF00BF00224FF4C0411748FEF7BDFE9A
:1023500048F202000190154802900020039001A964
:102360001148FEF703FD4FF4C04001900120029098
:10237000002003900220049001A90B48FEF7F6FC10
:10238000002211460720FEF72DFF0720FEF71AFF57
:10239000002211462820FEF725FF2820FEF712FF15
:1023A00005B000BD00100240000C014000001110FB
:1023B00010B51048104908604FF482704860002141
:1023C0000D4881604FF40061C160002101614161ED
:1023D0004FF4007181610821C161002101624162F5
:1023E00081620A21C162FFF7B7FA08B1FEF784F9EA
:1023F00010BD0000003C00402C02002000B591B050
:1024000000200F9010901C2108A8FDF7C4FE202189
:102410006846FDF7C0FE2248224908600020486057
:102420000021204881604F21C1600021016141618C
:1024300080218161FFF716FD08B1FEF75DF90020EC
:102440000F9010900FA91748FFF731FC08B1FEF765
:1024500053F960200890002009900A900C900D908C
:102460000E900C2208A90F48FFF778FC08B1FEF780
:1024700043F90020009001900290039004904FF4E3
:10248000005005900020079069460648FFF7D5FBED
:1024900008B1FEF731F90348FFF734FC11B000BD75
:1024A000002C01408402002010B50B480B49086045
:1024B0004FF4E1304860002108488160C16001614B
:1024C0000C21416100218161C161FFF7D1FD08B19B
:1024D000FEF712F910BD000000380140080300208B
:1024E00000BFFEE77047704708B508490968C9088A
:1024F0004FF47A72B1FBF2F14143009100BF00BF8B
:1025000000994A1E00920029F9D108BD1C02002042
:10251000F8B504460D4616462B460022802120467B
:10252000009600F009F828B1606D40F02000606569
:102530000320F8BD0020FCE72DE9F04104460E46DB
:1025400017461D46DDF818803EE0681CD8B3FEF73C
:10255000C3FDA0EB0800A84200D2A5BB20684068DC
:1025600020F0E000216848606068B0F5827F0DD1FE
:10257000A068B0F5004F03D0A068B0F5806F05D11A
:102580002068006820F0400021680860A06AB0F56B
:10259000005F0DD100BF2068006820F40050216862
:1025A00008602068006840F400502168086000BF9F
:1025B000012084F8510000BF002084F8500000BFC3
:1025C0000320BDE8F081FFE7206880683040B0421A
:1025D00001D1012000E00020B842B6D10020F0E790
:1025E000704710B5FEF77EFD10BD00B58FB02821F5
:1025F00005A8FDF7D0FD14216846FDF7CCFD0120AC
:102600000590000406900020079001200990022008
:102610000C90C1030D914FF4E0110E9105A8FEF747
:1026200069FF08B1FEF768F80F20009002200190C2
:10263000002002904FF4806003900020049002215B
:102640006846FEF721FE08B1FEF756F80FB000BD50
:102650001148006840F001000F49086008464068D2
:102660000E4908400C494860084600680C4908407B
:10267000094908600846006820F480200860084680
:10268000406820F4FE0048604FF41F008860C803D3
:102690000449086070470000001002400000FFF885
:1026A000FFFFF6FE08ED00E010B50268204B9842EF
:1026B0000ED0204B98420BD0B0F1804F08D01E4B6B
:1026C000984205D01D4B984202D01D4B984203D131
:1026D00022F070024B681A43154B98420ED0154BEE
:1026E00098420BD0B0F1804F08D0134B984205D0E0
:1026F000124B984202D0124B984203D122F44072FE
:10270000CB681A4322F080034C6943EA040202605A
:102710008B68C3620B688362054B984202D0054BFD
:10272000984201D10B6903630123436110BD00008E
:10273000002C01400034014000040040000800402B
:10274000000C004030B5056A25F001050562026AFB
:102750004368846924F0700424F003040D682C435A
:1027600022F002028D682A43104DA84200D103E0F6
:102770000F4DA84206D100BF22F00802CD682A43BF
:1027800022F00402094DA84202D0094DA84207D107
:1027900023F4807323F400734D692B438D692B431D
:1027A000436084614D684563026230BD002C014086
:1027B0000034014030B5056A25F010050562026A53
:1027C0004368846924F4E04424F440740D6844EAC6
:1027D000052422F020028D6842EA0512124DA8421B
:1027E00000D103E0114DA84207D100BF22F08002C2
:1027F000CD6842EA051222F040020B4DA84202D0F9
:102800000A4DA84209D123F4806323F400634D6983
:1028100043EA85038D6943EA8503436084614D681B
:102820008563026230BD0000002C0140003401408D
:1028300030B5056A25F480750562026A4368C4698B
:1028400024F0700424F003040D682C4322F4007279
:102850008D6842EA0522124DA84200D103E0114DD5
:10286000A84207D100BF22F40062CD6842EA0522E7
:1028700022F480620A4DA84202D00A4DA84209D132
:1028800023F4805323F400534D6943EA05138D6903
:1028900043EA05134360C4614D68C563026230BDFD
:1028A000002C01400034014030B5056A25F4805504
:1028B0000562036A4468C26922F4E04222F440726D
:1028C0000D6842EA052223F400538D6843EA05337C
:1028D000084DA84202D0084DA84204D124F48044F7
:1028E0004D6944EA85144460C2614D680564036221
:1028F00030BD0000002C01400034014070B5054699
:102900006C6A0020E085E0842046FFF709FB70BD7B
:102910000168C96821F490710268D1600168496951
:1029200021F0010102685161202180F83A107047BE
:1029300010B504462068C06820F040002168C860D7
:10294000202084F839002046FFF7BCFC002010BD91
:1029500070B5044694F83A0022284AD1A068B0F530
:10296000805F13D1A56A206940B920684068C0F330
:1029700008002880A06A801CA06219E020684068D6
:10298000C0B22880A06A401CA06211E0206938B95A
:1029900020684068C1B2A26A501CA062117007E0B2
:1029A0002068406800F07F01A26A501CA06211708C
:1029B000E08D401E80B2E085C8B92068C06820F074
:1029C00020002168C8602068C06820F480702168F9
:1029D000C8602068406920F001002168486120201B
:1029E00084F83A002046FFF701FC002070BD00206B
:1029F000FCE70220FAE7000070B504462168096987
:102A000021F44051E2681143226811612269A168F2
:102A10001143626941EA02052168C96841F20C620A
:102A2000914329432268D1602168496921F44071AA
:102A3000A269114322685161564A2168914254D1DA
:102A4000FEF7FEFC00EBC00101EB00116268920092
:102A5000B1FBF2F100EBC00202EB001263689B00D5
:102A6000B2FBF3F26423B2FBF3F202EBC20303EB1B
:102A70000212A1EB8201322202EB01116422B1FBAE
:102A8000F2F101F0F00100EBC00202EB001263680A
:102A90009B00B2FBF3F26423B2FBF3F201EB0212F0
:102AA00000EBC00101EB001163689B00B1FBF3F187
:102AB00000EBC00303EB00136668B600B3FBF6F34C
:102AC0006426B3FBF6F303EBC30606EB0313A1EB9B
:102AD0008301322303EB01116423B1FBF3F101F015
:102AE0000F0111442268916053E0FEF799FC00EB5E
:102AF000C00101EB001162689200B1FBF2F100EB42
:102B0000C00202EB001263689B00B2FBF3F2642385
:102B1000B2FBF3F202EBC20303EB0212A1EB820160
:102B2000322202EB01116422B1FBF2F101F0F0015B
:102B300000EBC00202EB001263689B00B2FBF3F2F1
:102B40006423B2FBF3F201EB021200EBC00101EBD4
:102B5000001163689B00B1FBF3F100EBC00303EBD2
:102B600000136668B600B3FBF6F36426B3FBF6F316
:102B700003EBC30606EB0313A1EB8301322303EB44
:102B800001116423B1FBF3F101F00F01114422683C
:102B9000916070BD00380140014691F8390021284C
:102BA0002CD18868B0F5805F0FD10A6A1088C0F315
:102BB00008000B685860086918B9086A801C086228
:102BC00009E0086A401C086205E00B6A581C0862AC
:102BD00018780B685860C88C401E80B2C88458B9F9
:102BE0000868C06820F080000B68D8600868C0687A
:102BF00040F040000B68D860002070470220FCE7DE
:102C00002DE9F04104460D4617469846069E21E000
:102C1000701CF8B12EB1FEF75FFAA0EB0800B042CD
:102C200018D92068C06820F4D0702168C860206876
:102C3000406920F0010021684861202084F83900B3
:102C400084F83A0000BF002084F8380000BF032059
:102C5000BDE8F081206800682840A84201D1012029
:102C600000E00020B842D3D00020F1E710B524489E
:102C7000FFF758F9234800785B2802D022480078F3
:102C8000B0B1224800780A2805DD00201E490870EE
:102C90001E4908700CE01B4801781C480278007837
:102CA000401C1A4B18701A488154012016490870AC
:102CB000144800785D281CD113480078C8B1144826
:102CC00014490860084600684078134908701148A4
:102CD00000688078114908700E480068C078487014
:102CE0000C4800680079887000200749087007497F
:102CF0000870012203490248FFF740FA10BD0000A6
:102D0000080300200C020020C5010020C40100209F
:102D100048030020C8010020C00100200D0200204F
:102D200000BFFEE72DE9F0418AB004460020039081
:102D300007A808A9CDE90010A2786178207809AB2E
:102D400001F062F91C491D4A126831F81200FDF7C2
:102D500072FB074600221A4BFDF7F0FA0546FDF715
:102D6000A4FB079004A805A906ABCDE90010DDE996
:102D70000721099800F0D6FF9DF818008DF80C0087
:102D80009DF814008DF80D009DF810008DF80E00D0
:102D900003A800F005FF0A20FDF796FF074800682A
:102DA000401C0649086008460068DC2801D3002062
:102DB00008600AB0BDE8F0810C420008B0010020B4
:102DC000000070402DE9F04106460F4641F6020131
:102DD00054480068FDF7DFF95348047889E020463D
:102DE00004EBD0714910A4EB410100295DD14F489B
:102DF000006890FBF7F107FB11004C4908600020C8
:102E000048490968088000214648006800F540509C
:102E10004180002541E04548006856F82000407890
:102E2000A84000F0800008B1FC2100E0C02104EBC4
:102E300044023C480068801C00EB021020F815108A
:102E40003A48006856F820000078A84000F080005A
:102E500008B1FC2100E0C02104EB440231480068C5
:102E6000801C00EB0210103020F815102F4800686D
:102E700056F820008078A84000F0800008B1FC21BE
:102E800000E0C02104EB440226480068801C00EBEF
:102E90000210203020F815106D1C082DBBDB2348D4
:102EA0000068401C2149086022E000201EE0C0228A
:102EB00004EB44031B490968891C01EB031121F849
:102EC000102004EB440317490968891C01EB031126
:102ED000103121F8102004EB440312490968891CC1
:102EE00001EB0311203121F81020401C0828DEDB03
:102EF000641CFF2C7FF773AF0B480078401C0A4915
:102F00000870087800EBD0714910A0EB4101064A27
:102F1000117041F6020000F0A3FED220FDF7D4FEAE
:102F2000BDE8F08100000020AC010020A8010020D5
:102F30002DE9F04706460F4641F602017748006842
:102F4000FDF729F94FF4807090FBF7F990FBF7F14A
:102F500007FB110000EB090A002563E04FF00008B1
:102F60005DE06F480068FF2802D900206C490860C6
:102F700000206A490968088000216848006800F557
:102F800040504180002441E056F825004078A040A0
:102F900000F0800008B1FC2100E0C021604800681A
:102FA00000EB40025D480068801C00EB021020F836
:102FB000141056F825000078A04000F0800008B1F9
:102FC000FC2100E0C0215648006800EB4002534855
:102FD0000068801C00EB0210103020F8141056F826
:102FE00025008078A04000F0800008B1FC2100E0BE
:102FF000C0214B48006800EB400248480068801C34
:1030000000EB0210203020F81410641C082CBBDBED
:1030100043480068401C4249086008F10108C8455F
:103020009FDB6D1C781EA84298DC4FF000085DE025
:103030003B480068FF2802D9002039490860002079
:1030400036490968088000213448006800F540507E
:103050004180002441E056F825004078A04000F06F
:10306000800008B1FC2100E0C0212D48006800EB81
:1030700040022A480068801C00EB021020F814105F
:1030800056F825000078A04000F0800008B1FC212F
:1030900000E0C0212248006800EB40021F480068A1
:1030A000801C00EB0210103020F8141056F8250098
:1030B0008078A04000F0800008B1FC2100E0C02131
:1030C0001748006800EB400214480068801C00EBC1
:1030D0000210203020F81410641C082CBBDB1048B0
:1030E0000068401C0E49086008F10108D0459FDBCC
:1030F00041F6020000F0B4FD09480068FF2802D93B
:1031000000200749086006480068401C0449086020
:103110001E20FDF7D9FDBDE8F0870000000000206B
:10312000A40100202DE9F0410546002400264FF4BB
:10313000C87641F60201FE480068FDF72CF8002031
:10314000FB49096808800021F948006800F54050F3
:10315000418000BFD9E1084601EBD0725210A1EBCB
:103160004202002A7ED100BFE0E00020D8E04F00FC
:10317000F04B1B6807EB4303B3FBF6F706FB173373
:10318000ED4FFB5C134103F00103ABB36B7883405D
:1031900003F080030BB1FC2700E0C02704EB440CD4
:1031A000E34B1B689B1C03EB0C1323F810702B786C
:1031B000834003F080030BB1FC2700E0C02704EB41
:1031C000440CDB4B1B689B1C03EB0C13103323F8E4
:1031D0001070AB78834003F080030BB1FC2700E054
:1031E000C02704EB440CD24B1B689B1C03EB0C1355
:1031F000203323F810701EE0FFE7C02704EB440CD7
:10320000CB4B1B689B1C03EB0C1323F8107004EBD7
:10321000440CC74B1B689B1C03EB0C13103323F8A7
:10322000107004EB440CC24B1B689B1C03EB0C138B
:10323000203323F81070012303EB4107BD4B1B68BB
:1032400007EB4303B3FBF6F706FB1733BA4FFB5C00
:10325000134103F001037BB36B78834003F08003D9
:103260001BB100E069E0FC2700E0C02704F108037F
:1032700003EB430CAE4B1B689B1C03EB0C1323F8B6
:1032800010702B78834003F080030BB1FC2700E023
:10329000C02704F1080303EB430CA54B1B689B1CE0
:1032A00003EB0C13103323F81070AB78834003F05A
:1032B000800313B1FC2701E00DE0C02704F10803EF
:1032C00003EB430C9A4B1B689B1C03EB0C13203342
:1032D00023F8107023E0C02704F1080303EB430C2C
:1032E000934B1B689B1C03EB0C1323F8107004F129
:1032F000080303EB430C8E4B1B689B1C03EB0C1366
:10330000103323F8107004F1080303EB430C884BCF
:103310001B689B1C03EB0C13203323F81070401C1C
:103320000828FFF624AF601C84B2521C082AFFF65E
:103330001CAF04F1080084B2E6E00022DEE00020C9
:10334000D6E0012303EB41077A4B1B6807EB4303ED
:10335000B3FBF6F706FB1733774FFB5C934003F0A4
:103360008003ABB36B78834003F080030BB1FC2781
:1033700000E0C02704EB440C6D4B1B689B1C03EB67
:103380000C1323F810702B78834003F080030BB1EB
:10339000FC2700E0C02704EB440C654B1B689B1C1A
:1033A00003EB0C13103323F81070AB78834003F059
:1033B00080030BB1FC2700E0C02704EB440C5C4BFE
:1033C0001B689B1C03EB0C13203323F810701EE0CA
:1033D000FFE7C02704EB440C554B1B689B1C03EB19
:1033E0000C1323F8107004EB440C514B1B689B1C0E
:1033F00003EB0C13103323F8107004EB440C4C4B0C
:103400001B689B1C03EB0C13203323F810704F0038
:10341000484B1B6807EB4303B3FBF6F706FB173378
:10342000454FFB5C934003F08003DBB36B78834034
:1034300003F080030BB1FC2700E0C02704F1080370
:1034400003EB430C3A4B1B689B1C03EB0C1323F858
:1034500010702B78834003F080030BB1FC2700E051
:10346000C02704F1080303EB430C314B1B689B1C82
:1034700003EB0C13103323F81070AB78834003F088
:1034800080030BB1FC2700E0C02704F1080303EB25
:10349000430C274B1B689B1C03EB0C13203323F8B6
:1034A000107024E0FFE7C02704F1080303EB430C8E
:1034B0001F4B1B689B1C03EB0C1323F8107004F1CB
:1034C000080303EB430C1A4B1B689B1C03EB0C1308
:1034D000103323F8107004F1080303EB430C144B72
:1034E0001B689B1C03EB0C13203323F81070401C4B
:1034F0000828FFF626AF601C84B2521C082AFFF68B
:103500001EAF04F1080084B2491C1029FFF623AE57
:1035100008480068401C0749086008460068B04237
:1035200001D10020086041F6020000F099FB05E09F
:10353000000000209C010020040000206E20FDF708
:10354000C3FBBDE8F081000010B543F2040000F0B9
:10355000F5FC0149086010BD000000202DE9F04F86
:103560008DB0054688469146C246CB460AEB0B0411
:1035700041F602018B480068FCF70DFE002021E0B7
:103580006978814001F0800109B1FC2100E0C0218F
:1035900005AA22F810102978814001F0800109B1B4
:1035A000FC2100E0C02109AA22F81010A97881406E
:1035B00001F0800109B1FC2100E0C02101AA22F83C
:1035C0001010401C0828DBDB0020764909680880C1
:1035D00000217448006800F540504180AAF10100C4
:1035E00071490968084490FBF4F104FB11066E4828
:1035F000006890FBF4F104FB11070020B9E0BE4223
:103600005BDD90FBF4F104FB1101B94231DB90FB6F
:10361000F4F104FB1101B1422BDC002126E005AAE4
:1036200032F8113000EB400C5E4A1268921C02EB3B
:103630000C1222F8113009AA32F8113000EB400CBC
:10364000584A1268921C02EB0C12103222F8113008
:1036500001AA32F8113000EB400C524A1268921C59
:1036600002EB0C12203222F81130491C0829D6DB5B
:103670007EE000211EE0C02300EB400C494A1268A6
:10368000921C02EB0C1222F8113000EB400C454A60
:103690001268921C02EB0C12103222F8113000EB6F
:1036A000400C404A1268921C02EB0C12203222F8A5
:1036B0001130491C0829DEDB5AE090FBF4F104FBD1
:1036C0001101B94205DA90FBF4F104FB1101B1429A
:1036D0002BDC002126E005AA32F8113000EB400C6B
:1036E000304A1268921C02EB0C1222F8113009AA1F
:1036F00032F8113000EB400C2A4A1268921C02EB9F
:103700000C12103222F8113001AA32F8113000EBFD
:10371000400C244A1268921C02EB0C12203222F850
:103720001130491C0829D6DB22E000211EE0C0230D
:1037300000EB400C1B4A1268921C02EB0C1222F8A0
:10374000113000EB400C174A1268921C02EB0C126D
:10375000103222F8113000EB400C124A1268921C11
:1037600002EB0C12203222F81130491C0829DEDB52
:10377000401CFF287FF743AF0B480068401C0A49F4
:10378000086008460068A04201D10020086041F6A8
:10379000020000F065FA6E20FDF796FA0DB0BDE864
:1037A000F08F000000000020A00100207CB5002068
:1037B000009001906148047861480088ADF80000ED
:1037C00060480088ADF802005F480088ADF804004A
:1037D0000025A7E000205D490968088000215B48BA
:1037E000006800F540504180002038E0BDF802102C
:1037F000814001F0800109B1FC2200E0C02205EB0C
:10380000450352490968891C01EB031121F8102076
:10381000BDF80010814001F0800109B1FC2200E0F8
:10382000C02205EB450349490968891C01EB0311D6
:10383000103121F81020BDF80410814001F0800102
:1038400009B1FC2200E0C02205EB45033F490968AD
:10385000891C01EB0311203121F81020401C08289D
:10386000C4DBBDF80200F52807DA34B9BDF8020060
:103870000A3080B2ADF802003AE0BDF800000A2834
:1038800007DD34B9BDF800000A3880B2ADF8000099
:103890002EE0BDF80400F52807DA34B9BDF80400BD
:1038A0000A3080B2ADF8040022E0BDF802000A2818
:1038B00007DD34B1BDF802000A3880B2ADF802006D
:1038C00016E0BDF80000F52807DA34B1BDF80000B5
:1038D0000A3080B2ADF800000AE0BDF804000A2802
:1038E00006DD2CB1BDF804000A3880B2ADF8040042
:1038F000BDF80400F52800DB0124BDF804000A2807
:1039000000DC00246DB90D480470BDF800000C49BE
:103910000880BDF802000B490880BDF804000A4980
:1039200008806D1CFF2D7FF755AF41F6020000F0B7
:1039300097F90A20FDF7C8F97CBD0000BE01002000
:10394000B8010020BA010020BC01002000000020C6
:1039500010B532480078062857D2DFE800F0560349
:1039600012212F422E484078401C2D4948700846AD
:103970004078142804D129480078401C2749087051
:1039800043E027488078401C2549887008468078A5
:10399000142804D121480078401C2049087034E0E4
:1039A0001F484078401E1E4948700846407820B99C
:1039B0001A480078401C1949087026E018484078D9
:1039C000401C1749487008460078401E0870084699
:1039D0004078142804D111480078401C0F49087021
:1039E00013E00F480078401C0D49087008464078E5
:1039F000401E487008468078401E887008468078CF
:103A000010B901200549087000BF00BF044800F04C
:103A1000C7F81E20FDF758F910BD0000B7010020BF
:103A2000B401002070B58CB004460D4641F6020189
:103A300058480068FCF7AFFB002020E06178814027
:103A400001F0800109B1FC2100E0C02104AA22F8A4
:103A500010102178814001F0800109B1FC2100E0C3
:103A6000C02108AA22F81010A178814001F080013D
:103A700009B1FC2100E0C0212DF81010401C0828DD
:103A8000DCDB0020434909680880002141480068C8
:103A900000F540504180002056E03F4909688842C7
:103AA0002EDC3E49096888422ADB002125E004AA71
:103AB00032F8113000EB4006364A1268921C02EBD5
:103AC000061222F8113008AA32F8113000EB400635
:103AD000304A1268921C02EB0612103222F81130A2
:103AE0003DF8113000EB40062A4A1268921C02EBA6
:103AF0000612203222F81130491C0829D7DB22E0B7
:103B000000211EE0C02300EB4006224A1268921CEE
:103B100002EB061222F8113000EB40061D4A126833
:103B2000921C02EB0612103222F8113000EB400614
:103B3000184A1268921C02EB0612203222F8113049
:103B4000491C0829DEDB401CFF28A6DD124800685E
:103B5000401C1149086005F580700968884202DC44
:103B600001200D4908600C480068A84205DB0A489E
:103B70000068401B0949086002E00020074908600E
:103B800041F6020000F06CF80A20FDF79DF80CB039
:103B900070BD00000000002094010020980100206A
:103BA00070B5054641F602012B480068FCF7F3FAB0
:103BB000002029490968088000BF3BE0002436E066
:103BC0006978A14001F0800109B1FC2200E0C02227
:103BD00000EB400320490968891C01EB031121F81F
:103BE00014202978A14001F0800109B1FC2200E0F5
:103BF000C02200EB400318490968891C01EB03113E
:103C0000103121F81420A978A14001F0800109B1F8
:103C1000FC2200E0C02200EB40030F490968891C28
:103C200001EB0311203121F81420611CCCB2082CC7
:103C3000C6DB401CFF28C1DD00210748006800F5F5
:103C4000405041804FF47A7341F602020248016805
:103C50000248FDF707FF70BD000000202C02002085
:103C600010B504464FF47A732246034801680348AE
:103C7000FDF7F8FE10BD0000000000202C0200201F
:103C8000014A024900F02FB8093D00082002002037
:103C900002480068C0F30220704700000CED00E00D
:103CA00010B5002804DB0A07130E054A135406E07A
:103CB0000A07140E034A00F00F031B1FD45410BD53
:103CC00000E400E018ED00E002E008C8121F08C19F
:103CD000002AFAD170477047002001E001C1121F8D
:103CE000002AFBD170472DE9F04116460F460446E5
:103CF000002503E03946B047641C6D1C207800287D
:103D0000F8D12846BDE8F08113B50C464FF6FF7395
:103D1000012269460248FEF76AFA00981CBD0000BD
:103D2000080300202DE9FF4F85B090461C46DDE9D1
:103D300012560598FCF78CFB3C2190FBF1F0062114
:103D400090FBF1F201FB12073846FCF766FB824656
:103D50006A490598FCF7B4FA83465146FCF778FAAD
:103D600081464FF07E500699FCF772FA8246414632
:103D7000FCF774FA049048460699FCF76FFA8346FC
:103D80004FF07E51FCF767FA82464146FCF766FA2F
:103D9000039049464FF07E50FCF75AFA019006997D
:103DA000FCF75CFA83464FF07E51FCF754FA8246EA
:103DB0004146FCF753FA0290062F1CD2DFE807F0C9
:103DC000031C354E678041464D48FCF747FA824652
:103DD000FCF757FB20704A480299FCF73FFA8246ED
:103DE000FCF74FFB287046480499FCF737FA8246E7
:103DF000FCF747FB30707CE041480399FCF72EFA52
:103E00008246FCF73EFB207041463D48FCF726FA0F
:103E10008246FCF736FB287039480499FCF71EFAF5
:103E20008246FCF72EFB307063E035480499FCF7BE
:103E300015FA8246FCF725FB207041463048FCF716
:103E40000DFA8246FCF71DFB28702D480299FCF7FD
:103E500005FA8246FCF715FB30704AE028480499C1
:103E6000FCF7FCF98246FCF70CFB20702448039910
:103E7000FCF7F4F98246FCF704FB28704146204821
:103E8000FCF7ECF98246FCF7FCFA307031E01C4894
:103E90000299FCF7E3F98246FCF7F3FA2070184820
:103EA0000499FCF7DBF98246FCF7EBFA28704146EF
:103EB0001348FCF7D3F98246FCF7E3FA307018E0B8
:103EC00041460F48FCF7CAF98246FCF7DAFA20703F
:103ED0000B480499FCF7C2F98246FCF7D2FA287025
:103EE00007480399FCF7BAF98246FCF7CAFA307022
:103EF00000BF00BF09B0BDE8F08F000000007042B5
:103F000000007F43FDF7FAF8FEF76FFBFEF7F8F9C4
:103F1000FEF7DCF9FEF772FAFEF7C6FAFEF748FA8A
:103F200000F01EF906E000F03BF94FF400510248A2
:103F3000FDF7C4F8F7E70000000C0140F0B50B30C6
:103F4000154D20F007010024144A0FE003688B424E
:103F50000BD38B4205D95E1A43184768C3E9006743
:103F600000E04368136002C004E0021D10680028EE
:103F7000ECD12046002802D1286808B10020F0BD0D
:103F8000064A07481060074A121A22F00702C0E9E1
:103F9000002401202860D7E7280200202402002006
:103FA0005C030020583800202DE9F04105460E46FC
:103FB000144631462846FCF79FFA01D2284600E015
:103FC0003046074621463846FCF796FA02D2384674
:103FD000BDE8F0812046FBE72DE9F04105460E469D
:103FE000144631462846FCF77DFA01D2284600E007
:103FF0003046074621463846FCF774FA02D2384666
:10400000BDE8F0812046FBE72DE9FF4F85B00F4664
:1040100090461C46DDF848900598FCF707FA4D4994
:104020000290FCF74DF982463846FCF7FFF9494902
:104030000290FCF745F983464046FCF7F7F94549FD
:104040000290FCF73DF905462A4659465046FFF7CF
:10405000ABFF06462A4659465046FFF7BDFF04907F
:1040600030460499FCF7F4F8039000210398FCF71C
:1040700039FA02D10020206058E051463046FCF762
:1040800031FA24D129465846FCF736FA0DD829468C
:104090005846FCF7DDF801900399FCF711F92E4919
:1040A0000290FCF7DBF8206040E029465846FCF718
:1040B000CFF800900399FCF703F927490190FCF72A
:1040C000CDF826490290FCF771F820602EE05946A1
:1040D0003046FCF707FA12D151462846FCF7B8F8EB
:1040E00000900399FCF7ECF84FF080410190FCF749
:1040F0005DF819490290FCF7B1F8206016E02946F6
:104100003046FCF7EFF911D159465046FCF7A0F8BC
:1041100000900399FCF7D4F84FF081410190FCF72F
:1041200045F80D490290FCF799F8206000213046CF
:10413000FCF7D8F903D10020C9F8000005E03146AA
:104140000398FCF7BDF8C9F800001398066009B0A1
:10415000BDE8F08F00007F43000070420000B443D0
:1041600010B5FFF7F1F90748FFF71AFD0A20FCF731
:10417000ABFD05A0FFF784FD012207490748FDF7C5
:10418000FDFF10BDCC010020575332383132425F61
:10419000544553540D0A00000C020020080300206F
:1041A00010B517480078082828D2DFE800F0040886
:1041B0000D13171A1D221348FEF7B4FF1EE010213D
:1041C0001048FFF72FFC19E0102211460D48FFF7A9
:1041D000C5F913E00B48FEF7A5FD0FE0FFF7B8FBAC
:1041E0000CE0FFF7E3FA09E008210748FEF7EAFDD3
:1041F00004E008210448FEF79BFE00BF00BF10BD8D
:10420000C00100200D020020EC0100200000000091
:10421000000000000000000000000000080008008E
:104220000800080008000900090009000900090049
:104230000A000A000A000A000A000B000B000B002B
:104240000C000C000D000D000E000E000F000F0002
:1042500010001000110012001200130014001400CE
:104260001500160017001800190019001A001B008D
:104270001C001E001F002000210022002400250039
:104280002600280029002B002D002E0030003200CF
:104290003400360038003A003C003E004100430044
:1042A000460048004B004E005100540057005A0091
:1042B0005E006100650069006D00710075007A00A4
:1042C0007E00830088008D00920098009E00A4006C
:1042D000AA00B000B700BE00C500CD00D500DD00CB
:1042E000E500EE00F70000010001F700EE00E50038
:1042F000DD00D500CD00C500BE00B700B000AA00AB
:10430000A4009E00980092008D00880083007E002B
:104310007A00750071006D006900650061005E0043
:104320005A005700540051004E004B004800460010
:10433000430041003E003C003A00380036003400A3
:10434000320030002E002D002B002900280026000E
:10435000250024002200210020001F001E001C0058
:104360001B001A001900190018001700160015008C
:1043700014001400130012001200110010001000AD
:104380000F000F000E000E000D000D000C000C00C1
:104390000B000B000B000A000A000A000A000A00CA
:1043A00009000900090009000900080008000800C8
:1043B00008000800000000000000000000000000ED
:1043C000000000000A001E0032006400BE00000170
:1043D000BE00640032001E000A0000000000000061
:1043E00000000102030406070809000000000102A2
:1043F0000304000014440008000000202C02000008
:1044000076060008504500082C0200202C3A0000D7
:10441000D83C000841100B40013801E73F2411242B
:1044200009A014100490F45F543554155F15541509
:104430005435F45F04901815400444245422541257
:104440005415D44874845F7F5408D40826E00812B9
:104450005422440440044DF00F1004026BFFFF0A85
:104460000310F00F3808FEFF0240124892021BF2C0
:104470004F06D00A4A924C12480240FEFF9B20048D
:1044800002ABFC3F0E11B22010084010406040808B
:10449000431440FF7F2A4002190812422D41C040B8
:1044A000300E911008040404020401842808E4FF7B
:1044B0003C092709240217492489E47F042902C9F9
:1044C000A02F22045A0886070A100D9240922092CB
:1044D00003920C9214FE22AA415011130180100B7A
:1044E00040202070182806268021180B200720184D
:1044F0002420384060801A1902B1121012125D9205
:104500003F921002133F12072E12400280FE7F1AC4
:1045100014581264290231C30D0A1AFF0129061921
:104520000459071AFF0312201A80021113D2011B2B
:1045300020D5041AD8041ADB041ADE041AE1041A7E
:10454000E4041AE70489A629B931D324F400000051
:0400000508000131BD
:00000001FF
